:020000040800F2
:10000000C0160020DD0100088D110008390E00081F
:10001000891100088D090008D7260008000000009B
:100020000000000000000000000000000D2000089B
:100030008D0A000800000000CD1B00080722000800
:10004000F7010008F7010008F7010008F7010008B0
:10005000F7010008F7010008F7010008F7010008A0
:10006000F7010008F7010008F7010008F701000890
:10007000F7010008F7010008F7010008F701000880
:10008000F7010008F7010008F7010008F701000870
:10009000F7010008F7010008F7010008F701000860
:1000A000F7010008F7010008F7010008F701000850
:1000B000F701000869220008F7010008F7010008AD
:1000C000F7010008F7010008F7010008F701000830
:1000D000F7010008F7010008F7010008652400088F
:1000E000F7010008F7010008F7010008F701000810
:1000F00000F002F800F063F80AA090E8000C8244D7
:100100008344AAF10107DA4501D100F058F8AFF2B3
:10011000090EBAE80F0013F0010F18BFFB1A43F0E5
:1001200001031847A0300000C030000010F8013B68
:100130000A4413F0030408BF10F8014B1D1108BF57
:1001400010F8015B641E05D010F8016B641E01F805
:10015000016BF9D1002D15D010F8014B03F00C0301
:100160000C2BA1EB04040ABF10F8013BA4EB831491
:10017000A4EB032405F1010314F8016B5B1E01F8E5
:10018000016BF9D5914238BF10F8013BD1D37047CC
:100190000023002400250026103A28BF78C1FBD890
:1001A000520728BF30C148BF0B607047642900F078
:1001B0004B80002070471FB51FBD10B510BD00F06B
:1001C000D8F91146FFF7F7FF02F062FB00F0F6F9ED
:1001D00003B4FFF7F2FF03BC00F0FEF909488047C3
:1001E00009480047FEE7FEE7FEE7FEE7FEE7FEE719
:1001F000FEE7FEE7FEE7FEE704480549054A064B31
:100200007047000009220008F1000008C01000201B
:10021000C0160020C0120020C01200200FB41CB570
:10022000084B06AA7B4469460090059800F089F9BE
:1002300004460020694600F097F920461CBC5DF892
:1002400014FB0000410300002DE9F04106460024A4
:1002500010687529314616A510D0AFF3008000282C
:1002600002DA404213A507E031688A0701D512A5DA
:1002700002E0490704D511A5012401E0AFF3008095
:1002800000210A2206F1240709E0B0FBF2FCB0FBD2
:10029000F2F302FB1C00303078541846491C002849
:1002A000F3D123462A463046BDE8F04100F0EBB8D2
:1002B000000000002D0000002B00000020000000C6
:1002C0002DE9F05F894604464FF0000ADFF874B16B
:1002D000FB44C0F820A02046E1688847002874D07D
:1002E000252806D0D4E901219047206A401C2062CD
:1002F000F1E700265F462046E1688847202805464A
:1003000007DB312D05D2781910F8200C08B106430F
:10031000F1E7B00701D526F00406C4F81CA00027B9
:10032000C4F818A02A2D09D0284602F09DFA38B347
:1003300004EB8708303DC8F8185019E059F8041B41
:10034000204604EB87029161E1688847012F05464A
:1003500018D1E069002820DA26F020061DE0D8F840
:10036000180000EB800005EB40003038C8F818009A
:100370002046E1688847054602F076FA0028EED16B
:10038000012F0AD02E2D08D12046E16888477F1C16
:100390000546022F46F02006C4DBA069002803DAD8
:1003A000404246F00106A061F00701D026F0100699
:1003B0006C2D0BD0682D09D04C2D39D06A2D35D03D
:1003C000742D35D07A2D33D016E038E0E1682F4611
:1003D00020468847B842054609D16C2F26D04FF4F5
:1003E0008060E168064320468847054604E06C2F9C
:1003F0001AD04FF4807006430DB3A5F141001928BF
:1004000002D8203546F400664A4629462046266032
:100410004E46FFF7CBFE80B101280BD0F61D26F02B
:10042000070000F1080956E74020E4E78020D8E7FC
:100430000020D6E706F104094DE7284652E7206A76
:10044000BDE8F09FDE2E0000401ECAB210F8011F6A
:100450008A4202D00029F9D10020704730B5054604
:100460000B462A4613F8014B12F8010B08B1A042C3
:10047000F8D01CB1002802D06D1CF1E7284630BD31
:100480007047704770472DE9F0470D4699469246F0
:10049000044600F124080168880604D5E06921F0CB
:1004A0001001216000E00120A84201DD471B00E0AF
:1004B0000027A1697A1902EB0900081AA0612078C7
:1004C000C00602D42046AFF30080002608E0D4E93D
:1004D00001211AF806009047206A401C761C206211
:1004E0004E45F4DB2078C0060AD52046AFF30080E5
:1004F00006E0D4E9012130209047206A401C2062A8
:10050000381EA7F10107F4DC07E0D4E9012118F84F
:1005100005009047206A401C2062281EA5F10105B5
:10052000F3DC2046AFF300802078000602D50220DD
:10053000BDE8F0870120FBE701694A1C02610878E9
:10054000704700B58FB0CDE9013100210591054913
:100550007944CDE9031011466846FFF7B1FE0FB0AC
:1005600000BD0000E5FFFFFF0A6802F8010B0A600A
:100570007047754600F02CF8AE46050069465346B4
:1005800020F00700854618B020B5FFF735FEBDE81E
:1005900020404FF000064FF000074FF000084FF0EA
:1005A000000B21F00701AC46ACE8C009ACE8C0097B
:1005B000ACE8C009ACE8C0098D46704710B50446E8
:1005C000AFF300802046BDE81040FFF701BE0000F9
:1005D000004870475C10002001491820ABBEFEE7C0
:1005E0002600020070470000F8B50027002525E12D
:1005F000052F28D2DFE807F003285280A700701CDF
:10060000C6B290A20221002000F092FE01F012F882
:100610000446ACB9012000F0EAFF044664B98EA29A
:100620000221002000F084FE90A20421002000F0AE
:100630007FFE0026012706E0204601F0CFFD02E004
:10064000204601F0CBFDF1E0701CC6B28CA2022165
:10065000002000F06DFE85A20421002000F068FE5D
:1006600000F0E8FF0446ACB9022000F0C0FF0446E9
:1006700064B979A20221002000F05AFE7BA2042175
:10068000002000F055FE0026022706E0204601F07B
:10069000A5FD02E0204601F0A1FDC7E07DA20221F8
:1006A000002000F045FE71A20421002000F040FE71
:1006B00001F025F804465CB97BA20221002000F07D
:1006C00037FE6AA20421002000F032FE03270EE06C
:1006D0007AA20221002000F02BFE64A20421002057
:1006E00000F026FE204601F079FD002600274FF499
:1006F000FA7000F0D3FA99E075A20221002000F010
:1007000017FE5AA20421002000F012FE4FF4FA70E6
:1007100000F0C4FA01F010F804465CB971A202219D
:10072000002000F005FE51A20421002000F000FE90
:10073000042703E00027204601F050FD4FF47A70B3
:1007400000F0ACFA72E06CA20021084600F0F0FD67
:100750006DA20221002000F0EBFD70A20421002018
:1007600000F0E6FD26E0002000F070FC7049087003
:1007700008460078022805D100200870002D01DD10
:10078000681EC5B26A480078042806D1002068496E
:100790000870632D01DA681CC5B266A20621282004
:1007A00000F0C6FD012002232A46062100904120C8
:1007B00000F08CFE5E4800780328D4D100205C490C
:1007C00008702946022000F0D4FF0446002C26D1F0
:1007D00000F020FD58A20221002000F0A9FD23A274
:1007E0000421002000F0A4FD40F2DC5000F056FA95
:1007F00000F010FD55A20021084600F099FD57A217
:100800000221102000F094FD58A20421102000F0D5
:100810008FFD5AA20621102000F08AFDF8BD00F0DD
:10082000F9FC0027204601F0D9FC00BF00BF4FF4BF
:10083000C87000F033FA0A2E00D100E0D8E600BFFD
:1008400000BFEBE720202020C7EBB0B4CAD6D6B853
:10085000202020200000000020202020D6B8CEC676
:10086000D5FDB3A320202020000000002020202060
:1008700020202020202020202020202000000000F8
:10088000202020C7EBD4D9B0B4D2BBB4CE202020D6
:10089000000000002020B6D4B1C8C1BDB4CED6B887
:1008A000CEC620200000000020202020B6D4B1C8F1
:1008B000B3C9B9A62020202000000000202020205D
:1008C000B6D4B1C8CAA7B0DC2020202000000000A8
:1008D0002020C9FAB3C9D6B8CEC6C4A3B0E520203B
:1008E00000000000C9FAB3C9D6B8CEC6C4A3B0E5AB
:1008F000B3C9B9A60000000020B0B44B34BCD32C5F
:10090000B0B44B32BCF5200020202020B0B44B33D3
:10091000B1A3B4E620202020000000002020303DBC
:100920003C204944203C3D39392020200000000073
:10093000380D002049443D002020C2BCC8EBD6B889
:10094000CEC6B3C9B9A6202000000000D6B8CEC6D6
:10095000C9EDB7DDC8CFD6A4000000004B31BCFC08
:10096000CCEDBCD3D6B8CEC6000000004B33BCFCE7
:10097000C9BEB3FDD6B8CEC6000000004B35BCFCE6
:10098000D1E9D6A4D6B8CEC60000000000BFFEE76D
:1009900008B50121082001F03BF914208DF803006F
:1009A0004FF48040ADF8000003208DF80200694646
:1009B000224800F0A9F948208DF803004FF40040C8
:1009C000ADF8000003208DF802000121042001F0A1
:1009D0001FF948208DF803004FF48070ADF8000037
:1009E00003208DF802000121102001F011F94FF4CD
:1009F0000050ADF8000010208DF8030003208DF8A2
:100A0000020069460E4800F07FF969460D4800F083
:100A10007BF94FF48041094800F00CFA4FF4004193
:100A2000064800F007FA4FF48071064800F002FA19
:100A30004FF40051024800F0FDF908BD000C0140E0
:100A4000001001400008014010B54FF480410248F9
:100A500000F0F0F910BD0000000C014010B54FF49B
:100A60008041024800F0E4F910BD0000000C014094
:100A700070B505460C460026284601F007FA0646E2
:100A800026EA0401284601F041FE70BD70470000CF
:100A900038B5002445A20021084600F049FC48A2D0
:100AA0000221002000F044FC4AA20421002000F0B2
:100AB0003FFC46E0002000F0C9FA4B4908700846A8
:100AC0000078022805D100200870002C01DD601E8E
:100AD00084B245480078042806D1002042490870B5
:100AE000632C01DA601C84B23F480078012800D1F1
:100AF00041E03D480078052816D100203A490870A9
:100B000000F058FD05463DB900F084FB37A20221F4
:100B1000002000F00DFC02E0284601F05FFB40F2EF
:100B2000DC5000F0BBF826E035A20621282000F0BA
:100B3000FFFB01200223224606210090412000F005
:100B4000C5FC294800780328B4D10121204600F0D3
:100B5000FBFC05463DB900F05DFB2AA20221002006
:100B600000F0E6FB02E0284601F038FB40F2DC50E2
:100B700000F094F800BF00F04DFB27A200210846CA
:100B800000F0D6FB28A20221102000F0D1FB2AA2FF
:100B90000421102000F0CCFB2BA20621102000F035
:100BA000C7FB00201049087038BD00004B34BCD38F
:100BB000204B32BCF5204B33C8B7C8CF0000000033
:100BC00020204B35C7E5BFD5D6B8CEC6BFE2202022
:100BD000000000004B31B7B5BBD820303D3C494444
:100BE0003C3D393900000000380D002020C7E5BF2A
:100BF000D5D6B8CEC6BFE2B3C9B9A6200000000062
:100C000049443D002020C9BEB3FDD6B8CEC6B3C905
:100C1000B9A6202000000000D6B8CEC6C9EDB7DDC9
:100C2000C8CFD6A4000000004B31BCFCCCEDBCD337
:100C3000D6B8CEC6000000004B33BCFCC9BEB3FD25
:100C4000D6B8CEC6000000004B35BCFCD1E9D6A416
:100C5000D6B8CEC60000000010B56FF0040001F059
:100C6000BEFA0A4800680A49B0FBF1F00949087069
:100C70000846007800EB4001C1EBC0104FF6FF7151
:100C800001EAC0000449088010BD00000C000020EB
:100C900000127A0024000020260000200146114A9C
:100CA00012884A434FF0E0235A6100229A611A46A3
:100CB000126942F001021A6100BF4FF0E022106990
:100CC00000F001021AB100F48032002AF5D04FF092
:100CD000E022126922F001024FF0E0231A610022A3
:100CE0009A6170472600002001460888704700007E
:100CF0000022044900E0521C11F8013B002BFAD1FC
:100D000050087047580C00202DE9F041024600259C
:100D10000026002000230024002791F803C00CF0D7
:100D20000F0591F803C00CF0100CBCF1000F03D0BC
:100D300091F802C04CEA050591F800C0BCF1000F23
:100D400031D0146800202BE04FF0010C0CFA00F3B6
:100D5000B1F800C00CEA03069E4220D183004FF098
:100D60000F0C0CFA03F7BC4305FA03FC4CEA04042D
:100D700091F803C0BCF1280F06D14FF0010C0CFA1A
:100D800000FCC2F814C00AE091F803C0BCF1480F9F
:100D900005D14FF0010C0CFA00FCC2F810C0401C49
:100DA0000828D1D31460B1F800C0BCF1FF0F34DDC6
:100DB000546800202EE000F1080C4FF0010808FAFA
:100DC0000CF3B1F800C00CEA03069E4221D1830067
:100DD0004FF00F0C0CFA03F7BC4305FA03FC4CEA86
:100DE000040491F803C0BCF1280F05D100F1080CF0
:100DF00008FA0CF8C2F8148091F803C0BCF1480F4F
:100E000007D100F1080C4FF0010808FA0CF8C2F8FD
:100E10001080401C0828CED35460BDE8F081024603
:100E2000002093680B400BB1012000E000207047C8
:100E3000416170470161704700BF0748006800F4D6
:100E4000E06006490843001D03490860BFF34F8F67
:100E500000BF00BFFEE700000CED00E00000FA0557
:100E6000002001E0411CC8B20A28FBDB70470000EB
:100E700008B50121102000F0CBFE4FF48070ADF8D2
:100E8000000003208DF8020014208DF8030069464D
:100E90000648FFF739FF4FF40070ADF800006946CF
:100EA0000248FFF731FF00F01DF808BD000C0140BB
:100EB00010B50120094908600949C1F8A001FFF7F0
:100EC000CFFF002005490860FFF7CAFF0020044952
:100ED000C1F8A001FFF7C4FF10BD0000A4812142AA
:100EE0000080214210B50020054908600120054915
:100EF000C1F8A001FFF7B4FF01200149086010BD4F
:100F0000A48121420080214210B501200D490860D2
:100F1000FFF7A6FF01200C49C1F8A001FFF7A0FFD1
:100F20004FF400710948FFF77AFF08B1012400E08F
:100F3000002400200349091F0860FFF791FF2046A5
:100F400010BD0000A481214200802142000C01401C
:100F50007CB50546EF208DF8000001208DF80100DA
:100F60001A480068000E8DF8020018480068000C4E
:100F70008DF8030015480088000A8DF80400134816
:100F800000788DF8050007208DF8060000208DF808
:100F900007000F49088012E00120FFF77FFE0C4890
:100FA000008800F4004050B10020094908806946DB
:100FB0000848FFF753FA04460CB120467CBD681E72
:100FC00080B2051EE8D100BFF8E700003C00002019
:100FD0003A0D00203C0D002008B50121142000F03E
:100FE00017FE0420ADF8000048208DF80300694684
:100FF0001548FFF789FE0820ADF8000048208DF85D
:10100000030069461048FFF77FFE1020ADF800008E
:1010100048208DF8030069460B48FFF775FE202035
:10102000ADF8000048208DF8030069460648FFF738
:101030006BFE4020ADF8000048208DF803006946A3
:101040000148FFF761FE08BD0008014010B50446E5
:1010500014B101202B4908702A480078002835D0A7
:101060002948006878B12848001D006858B1264812
:101070000830006838B124480C30006818B12248A4
:101080001030006810BB0A20FFF708FE00201D4941
:1010900008701D48006808B9012010BD1A48001DDD
:1010A000006808B90220F8E717480830006808B956
:1010B0000320F2E714480C30006808B90420ECE77C
:1010C000114810300068D8B90520E6E70E480068DE
:1010D000012815D10C48001D0068012810D10A48CC
:1010E0000830006801280BD107480C30006801283F
:1010F00006D1054810300068012801D10149087067
:101100000020CAE7460000200801214210B504462D
:10111000412C25D108210846FFF7AAFC3D211120CA
:1011200001F0F4FA8621172001F0F0FA7F21262041
:1011300001F0ECFA1E212D2001F0E8FA00212C200C
:1011400001F0E4FA8D212A2001F0E0FA3E212B2063
:1011500001F0DCFA012001F08EFB00F095FB01E0CC
:10116000FF2010BD0020FCE710B5044600BF402161
:10117000044801F009FA0028F9D02146014801F09D
:10118000A6FA10BD0048004000BFFEE700BFFEE722
:1011900070B5002100230F22C47804B3154C2468D5
:1011A00004F4E064C4F5E064210AC1F10403CA4018
:1011B000447804FA03F184781440214309010E4C69
:1011C0000678A155047804F01F050124AC40057889
:1011D0006D11AD0005F1E025C5F8004109E0047886
:1011E00004F01F050124AC40044D0678761145F843
:1011F000264070BD0CED00E000E400E080E100E07E
:1012000002490143024A1160704700000000FA05DC
:101210000CED00E010B5002000F001F810BD70B535
:101220000646002415E004F1B001C8B201F0F0FA5E
:10123000002001F0EDFA102001F0EAFA002504E0A8
:10124000304601F0FBFA681CC5B2822DF8DB601C49
:10125000C4B2082CE7DB70BD10B5FFF709FEAE2065
:1012600001F0D6FA002001F0D3FA102001F0D0FAF4
:10127000402001F0CDFAB02001F0CAFA812001F03F
:10128000C7FAFF2001F0C4FAA12001F0C1FAA6209C
:1012900001F0BEFAA82001F0BBFA3F2001F0B8FA35
:1012A000C82001F0B5FAD32001F0B2FA002001F015
:1012B000AFFAD52001F0ACFA802001F0A9FAD820CD
:1012C00001F0A6FA052001F0A3FAD92001F0A0FA56
:1012D000F12001F09DFADA2001F09AFA122001F0D3
:1012E00097FADB2001F094FA302001F091FA8D207A
:1012F00001F08EFA142001F08BFAAF2001F088FA89
:1013000010BD70B504460D4605F1B001C8B201F03C
:101310007FFAA11CC1F3031141F0100001F078FA2B
:10132000A11C01F00F0141F0010001F071FA70BD44
:101330002DE9F047074688461646002580E03078BC
:10134000A02843DD00253AE0702F04DD002708F1D6
:10135000020000F0FF0830783C4911F8151088426F
:101360002CD17078012101EB4501384A515C88424B
:1013700024D141463846FFF7C4FF002406E004EBC1
:101380004511334A505C01F059FA641C102CF6D315
:1013900008F10100C1B23846FFF7B3FF002407E0AF
:1013A00004EB451110312A4A505C01F047FA641CE5
:1013B000102CF5D307F11000C7B204E06D1C2548CE
:1013C00000688542C0D300BFB61C39E07A2F04DD27
:1013D000002708F1020000F0FF0831781E48FFF7EF
:1013E00033F88146B9F1000F29D041463846FFF75E
:1013F00088FF002409E099F80010203904EB01115E
:10140000164A505C01F01AFA641C082CF3D308F158
:101410000100C1B23846FFF774FF00240AE099F8D2
:101420000010203904EB011108310C4A505C01F026
:1014300005FA641C082CF2D307F10800C7B2761C29
:10144000307800287FF47BAFBDE8F087580C00208F
:10145000380600201C0D0020BB0C00204800002096
:101460002DE9F04107460E46904600250024A8F1DC
:101470002000C5B2812F02DD0027B01CC6B2314664
:101480003846FFF73EFF002407E004EB05110E4A43
:10149000505C01F0D3F9601CC4B2082CF5DB701C61
:1014A000C1B23846FFF72DFF002408E004EB051118
:1014B0000831054A505C01F0C1F9601CC4B2082C27
:1014C000F4DBBDE8F0810000480000202DE9F04782
:1014D0000546894690461E46DDF820A000242FE0F0
:1014E000301B401EC1B20A2001F0B2FAB8FBF0F086
:1014F0000A21B0FBF1F201FB1207A7B9BAF1000F04
:1015000008D0082101FB0451C8B230224946FFF738
:10151000A7FF07E0082101FB0451C8B22022494679
:10152000FFF79EFF0AE007F13001CAB2082101FB74
:101530000451C8B24946FFF793FF00BF601CC4B214
:10154000B442CDDBBDE8F0872DE9F04104460D46FD
:1015500000F087FD00F05CFD012000F07CFD07201D
:1015600000F087FD0C2000F08EFD2012FFF7FCFD3F
:10157000E0B2FFF7F9FD2812FFF7F6FDE8B2FFF73A
:10158000F3FD142000EB2420E1B2084400EB2520F9
:10159000E9B200EB0108404600F054FD4FF4FA6058
:1015A000FFF7D6FC07460FB17E7A00E0FF263046F3
:1015B000BDE8F08170B500F054FD00F029FD012078
:1015C00000F049FD032000F054FD0D2000F05BFD0C
:1015D0001126304600F036FD4FF4FA60FFF7B8FCF4
:1015E00005460DB16C7A00E0FF24204670BD2DE960
:1015F000F041054600F035FD00F00AFD012000F045
:101600002AFD042000F035FD022000F03CFD2846B4
:10161000FFF7AAFDEF1D384600F014FD4FF4FA6005
:10162000FFF796FC06460EB1747A00E0FF242046D0
:10163000BDE8F08170B500F014FD00F0E9FC012078
:1016400000F009FD032000F014FD012000F01BFD57
:101650000526304600F0F6FC4FF4FA60FFF778FC00
:1016600005460DB16C7A00E0FF24204670BD2DE9DF
:10167000F04781460D4616461F4600F0F2FC00F08A
:10168000C7FC012000F0E7FC082000F0F2FC1B2062
:1016900000F0F9FC4846FFF767FD2812FFF764FDEC
:1016A000E8B2FFF761FD3012FFF75EFDF0B2FFF721
:1016B0005BFD09F1240000EB2520E9B2084400EBB2
:1016C0002620F1B200EB010A504600F0BBFC4FF4BB
:1016D000FA60FFF73DFC044664B194F80980E07AB3
:1016E000A17A00EB01203880607B217B00EB012098
:1016F000788001E04FF0FF084046BDE8F08770B504
:1017000000F0AFFC00F084FC012000F0A4FC0320FA
:1017100000F0AFFC032000F0B6FC0726304600F0D6
:1017200091FC4FF4FA60FFF713FC05460DB16C7A9B
:1017300000E0FF24204670BD70B500F092FC00F080
:1017400067FC012000F087FC032000F092FC0520DC
:1017500000F099FC0926304600F074FC4FF4FA6062
:10176000FFF7F6FB05460DB16C7A00E0FF2420463A
:1017700070BD2DE9F04106460C4600F072FC00F009
:1017800047FC012000F067FC062000F072FC0620F8
:1017900000F079FC3046FFF7E7FC2012FFF7E4FC8D
:1017A000E0B2FFF7E1FC06F10D0000EB2420E1B20E
:1017B00000EB0108404600F045FC4FF4FA60FFF7EB
:1017C000C7FB07460FB17D7A00E0FF252846BDE83C
:1017D000F081000000B589B00121084600F0F8F959
:1017E0000121042000F014FA18208DF823000220B3
:1017F000ADF8200003208DF8220008A91A48FFF751
:1018000083FA4FF0804000F0A2FD0020ADF81A00EE
:10181000ADF8160044F61F60ADF818004720ADF88B
:10182000140000208DF81C0005A94FF0804000F046
:10183000EDFD01A800F0DCFD6020ADF80400002003
:10184000ADF80C000120ADF806000020ADF80A004C
:1018500001A94FF0804000F081FD0121880700F0D0
:1018600050FD09B000BD00000008014010B504465D
:1018700021464FF0804000F0C5FD10BD10B503219A
:101880001420FFF7F5F810BD10B5142000F0FEFA93
:10189000044604F0030018B90321142000F01CFCD6
:1018A00010BDF0B587B00546002708210846FFF7B0
:1018B000DFF800210D2000F029FF80210E20FFF726
:1018C000D7F893208DF8040020208DF8050006A895
:1018D00001AB022201A900900C2000F01AF8064684
:1018E00086B9002407E001A8005D285501A8005D25
:1018F0004740601CC4B2042CF5DB01A8005DB8426F
:1019000000D0FE2680210E2000F0E6FB304607B016
:10191000F0BD2DE9FE4F0646884691469A46DDF811
:1019200030B0FE2002900020019000900C2E06D0D6
:101930000E2E09D1122001901020009005E0772092
:1019400001903020009000E000BF00BF019840F0FF
:101950008001022000F0DAFE80210420FFF788F8E1
:101960000021012000F0D2FE80210A2000F0B4FB0B
:10197000002505E018F80510092000F0C7FE6D1CD1
:101980004D45F7D33146012000F0C0FE0C2E03D1A7
:1019900080210D2000F0A0FB4FF4FA6500BF042069
:1019A00000F074FA04466D1E35B104F0010018B958
:1019B000009820400028F2D080210D20FFF758F831
:1019C00095B3062000F062FA00F01B0068BB00200F
:1019D00002900198204000F0010008B1FF20029021
:1019E0000C2E24D10A2000F051FA04460C2000F0FD
:1019F0004DFA00F007072FB1601E07EBC000CBF8CF
:101A0000000002E0E000CBF8000004B90124122C31
:101A100000DD1224002505E0092000F037FA0AF85D
:101A200005006D1CA542F7D301E0FE200290802145
:101A30000C2000F051FB0021012000F067FE02980D
:101A4000BDE8FE8F08B50121082000F0E1F84FF451
:101A50008050ADF8000010208DF8030002208DF8B2
:101A6000020069462448FFF74FF90121082000F0E1
:101A7000CFF84FF40050ADF8000004208DF80300BB
:101A800002208DF8020069461B48FFF73DF901214D
:101A9000082000F0BDF80220ADF8000010208DF8FD
:101AA000030002208DF8020069461348FFF72CF965
:101AB0000121082000F0ACF80120ADF80000102052
:101AC0008DF8030002208DF8020069460A48FFF7EE
:101AD0001BF90121042000F09BF88020ADF80000E4
:101AE00010208DF8030002208DF80200694603489B
:101AF000FFF70AF908BD0000000C01400008014092
:101B000070B588B005460C4608210846FEF7B0FFC0
:101B100007210D2000F0FAFD0321142000F0DCFA6B
:101B20008DF8085007A802AB012202A900900C20F2
:101B3000FFF7EFFE06464EB90798102806D19DF82C
:101B4000080020709DF80900607000E0FE26304615
:101B500008B070BD10B54FF480511B48FFF76AF90B
:101B6000012000F088FE4FF480511748FFF760F91C
:101B7000012000F080FE4FF480511348FFF75AF91E
:101B80000A2000F078FE022000F080F90F210120E9
:101B900000F0BCFD3D21112000F0B8FD1E212D20DC
:101BA00000F0B4FD00212C2000F0B0FD8D212A2092
:101BB00000F0ACFD3E212B2000F0A8FD40211520B7
:101BC00000F0A4FD002010BD000C01407047000093
:101BD00029B1064AD2690243044BDA6104E0034AA0
:101BE000D2698243014BDA61704700000010024065
:101BF00029B1064A12690243044B1A6104E0034A00
:101C000012698243014B1A617047000000100240C4
:101C100029B1064A92690243044B9A6104E0034ADF
:101C200092698243014B9A617047000000100240A4
:101C300029B1064AD2680243044BDA6004E0034A41
:101C4000D2688243014BDA60704700000010024006
:101C500030B50021002200240023324D6D6805F0CC
:101C60000C0121B1042905D008292CD105E02E4D05
:101C700005602BE02C4D056028E02A4D6D6805F4C9
:101C80007012284D6D6805F48034022505EB9242F0
:101C900064B9264D2D6805F010051DB1224D554340
:101CA00005600FE0224D554305600BE01D4D6D684A
:101CB00005F400351DB11E4D5543056002E01A4D77
:101CC0005543056002E0184D056000BF00BF154D8B
:101CD0006D6805F0F0010909164D6B5C0568DD4083
:101CE0004560104D6D6805F4E061090A114D6B5CAB
:101CF0004568DD4085600B4D6D6805F46051C90A8B
:101D00000C4D6B5C4568DD40C560064D6D6805F4A3
:101D10004041890B084D6B5CC568B5FBF3F5056167
:101D200030BD00000010024000127A00003802406E
:101D300000093D00280000203800002010B500F008
:101D400031F80F4908700846007810B900F0C5FC5A
:101D500014E00B48007801280BD0094800780228CD
:101D600007D007480078032803D0054800780428E6
:101D700004D101200349086000F0AFFC10BD000051
:101D8000000000200800002010B5FFF75BFEFFF701
:101D9000E1FEFFF773FDFFF777FD4120FFF7B6F98E
:101DA00010BD000010B535495220FFF7A9FE0028EC
:101DB00061D13348FFF775FD00285AD1002430481F
:101DC000007843280DD12E484078282809D12C4886
:101DD0008078ED2805D12A48C078102801D1012447
:101DE0004AE0274800785A280DD125484078FD2838
:101DF00009D1234880788A2805D12148C078102845
:101E000001D1022438E01E4800781E490978884232
:101E100013D11B4840781B49497888420DD1184896
:101E2000807818498978884207D11548C0781549C3
:101E3000C978884201D103241EE011480078124974
:101E40000978884213D10E4840780F494978884272
:101E50000DD10B4880780C498978884207D1084811
:101E6000C0780949C978884201D1042404E00024DB
:101E700002E0052400E00624204610BD240D0020C9
:101E8000200D0020300D0020340D00202DE9F04100
:101E90000646002580212448FEF7CAFF7E2000EA7E
:101EA000460040F08007082417E001211F48FEF794
:101EB000BFFF07F0800020B102211C48FEF7BAFFE7
:101EC00003E002211948FEF7B3FF01211748FEF78E
:101ED000B1FF7806070E601EC4B2002CE5DC0824B2
:101EE00014E001211148FEF7A3FF6806050E012149
:101EF0000E48FEF79FFF4FF400510C48FEF78FFF8E
:101F0000012801D145F00105601EC4B2002CE8DCB7
:101F100080210548FEF78EFF01210448FEF78AFF65
:101F20002846BDE8F081000000080140000C014097
:101F300010B52E48FEF7D8FE2D4908702B48801C9E
:101F4000FEF7D2FE2A4948702848001DFEF7CCFE55
:101F5000274988702548801DFEF7C6FE2449C870B1
:101F60002448FEF7C1FE244908702248801CFEF771
:101F7000BBFE214948701F48001DFEF7B5FE1E49F3
:101F800088701C48801DFEF7AFFE1B49C8701B48B7
:101F9000FEF7AAFE1A4908701848801CFEF7A4FE36
:101FA000174948701548001DFEF79EFE14498870B9
:101FB0001248801DFEF798FE1149C8701148FEF7BF
:101FC00093FE114908700F48801CFEF78DFE0E49E4
:101FD00048700C48001DFEF787FE0B4988700948C1
:101FE000801DFEF781FE0849C87010BD0070000812
:101FF000280D0020007400082C0D00200078000837
:10200000300D0020007C0008340D002070470000D7
:1020100010B50B490968080EFFF7A6F808480068D4
:10202000C0F30740FFF7A0F805480088C0F3072079
:10203000FFF79AF802490878FFF796F810BD0000FC
:102040003C00002010B504462012FFF78DF8E0B2E6
:10205000FFF78AF810BD10B504462046FFF784F854
:1020600010BD10B5EF20FFF77FF80120FFF77CF8D7
:1020700010BD10B50446C4F30720FFF775F8E0B2B1
:10208000FFF772F810BD10B504462046FFF76CF854
:1020900010BD10B5FFF79EFB10BD00002DE9F0410B
:1020A00004460A49204600F061FE8046084900F0D7
:1020B0003FFF0746074900F0F7FD064600F018FF0E
:1020C00085B22846FFF7D2FBBDE8F081000034431B
:1020D0000000FA440000FA4370B505460C4600269D
:1020E0002846FFF7D3FE064646EA0401284600F0DC
:1020F0000DFB70BD10B500F001F810BD0CB500204F
:10210000019000903348006840F480303149086005
:1021100000BF3048006800F4003000900198401C77
:102120000190009818B90198B0F5A06FF1D1294835
:10213000006800F4003010B10120009001E00020A0
:1021400000900098012843D12348006840F0100017
:10215000214908600846006820F00300086008462E
:10216000006840F0020008601A4840681949486059
:102170000846406848600846406840F4806048600F
:102180000846406820F47C1048600846406840F4E7
:10219000E81048600846006840F08070086000BFA2
:1021A0000C48006800F000700028F9D00948406829
:1021B00020F00300074948600846406840F00200EC
:1021C000486000BF0348406800F00C000828F9D1BF
:1021D0000CBD00000010024000200240704704289F
:1021E00008D14FF0E021096941F004014FF0E022ED
:1021F000116107E04FF0E021096921F004014FF07F
:10220000E02211617047704710B51348006840F034
:1022100001001149086008464068104908400E490D
:102220004860084600680E4908400B4908600846A7
:10223000006820F4802008600846406820F4FE0012
:1022400048604FF41F008860FFF754FF4FF00060B4
:102250000449086010BD0000001002400000FFF8B3
:10226000FFFFF6FE08ED00E010B50121094800F07F
:1022700054F868B10848008840F4004006490880D6
:102280000121044800F03AF80021024800F039F832
:1022900010BD0000000400403A0D00207FB5054647
:1022A0000C4601210220FFF793FCADF80450ADF875
:1022B00000400020ADF80600ADF8020069460E4867
:1022C00000F0A4F8012211460B4800F037F8012174
:1022D000094800F016F81D208DF80C0000208DF83C
:1022E0000D0002208DF80E0001208DF80F0003A8CC
:1022F000FEF74EFF7FBD000000040040CA4302828B
:10230000704721B1028842F00102028004E0028895
:102310004FF6FE731A400280704730B50246002027
:1023200000230024158A05EA0103958905EA0104C2
:1023300013B10CB1012000E0002030BD1AB1838937
:102340000B43838102E083898B438381704701893A
:102350004FF6F872114001817047000070B50024FB
:1023600000220023058C4FF6EF7635400584028C61
:102370008388048B48F6FF752C404FF6FF452C40B0
:102380000D884FF6FF7606EA05252C434FF6DF75DC
:102390002A400D8906EA05152A434D8806EA0515E7
:1023A0002A43124DA8421BD14FF67F752A404D8912
:1023B00006EA05152A434FF6BF752A408D8806EABE
:1023C00005152A434FF6FF352B404FF2FF752B4082
:1023D0008D8906EA85052B43CD8906EA85052B43C1
:1023E00083800483CD880587028470BD002C014062
:1023F0000021018041808180C180018141818181F2
:10240000C18170470187704781847047002202882C
:10241000114B984208D0B0F1804F05D00F4B984235
:1024200002D00F4B984204D14FF68F731A404B885D
:102430001A434FF6FF431A40CB881A4302808B8819
:1024400083850B880385044B984201D10B7A038660
:102450000123838270470000002C014000040040EB
:102460000008004010B540F22551164800F095F8DC
:10247000F8B1144800F026F9C4B21348008800F4FB
:102480000040B0B910480088B0F5C87F12DA0021CA
:102490000E48FFF7B9FF0C48008818B901210B4816
:1024A000FFF72FFF08490888411C074A1180084997
:1024B0000C5405E00448008840F4004002490880BC
:1024C00010BD0000004800403A0D0020000400400C
:1024D0003C0D002021B1828942F40052828104E047
:1024E00082894DF6FF731A408281704710B5044609
:1024F0002048844209D101218803FFF799FB00217C
:102500004FF48040FFF794FB32E01B48844209D12E
:1025100001214804FFF76CFB00214FF40030FFF766
:1025200067FB25E01548844209D101218804FFF7A3
:102530005FFB00214FF48020FFF75AFB18E01048A2
:10254000844209D10121C804FFF752FB00214FF456
:102550000020FFF74DFB0BE00A48844208D101211F
:102560000805FFF745FB00214FF48010FFF740FB03
:1025700010BD000000380140004400400048004009
:10258000004C0040005000400246002013880B40E1
:102590000BB1012000E00020704770B502460B46E9
:1025A0000024002100250020C3F3421503F01F0181
:1025B000012606FA01F1012D02D19689314006E08B
:1025C000022D02D1168A314001E0968A31401C1258
:1025D000012606FA04F41688344011B10CB101202A
:1025E00000E0002070BDF0B5034600240026002561
:1025F00000201846C1F3421401F01F06012707FA14
:1026000006F5012C01D10C3004E0022C01D1103070
:1026100000E014301AB107682F43076002E0076832
:10262000AF430760F0BD00002DE9F04786B00546D6
:102630000E460024A24600BF00BF00272F462C8A6A
:102640004CF6FF700440F08804432C82AC894EF6AF
:10265000F3100440B088318908437189084304436A
:10266000AC81AC8A4FF6FF400440B0890443AC8291
:1026700001A8FFF7EDFA1248874202D1DDF810A059
:1026800001E0DDF80CA00AEBCA0000EB0A1031688B
:102690008900B0FBF1F86420B8FBF0F004012009D8
:1026A000642101FB1089322000EB0910B0FBF1F02E
:1026B00000F00F0004432C8106B0BDE8F087000055
:1026C0000038014001468888C0F308007047C1F314
:1026D00008028280704700BFFEE738B515E0694602
:1026E0005220FFF70DFA044664B169465220FFF705
:1026F00007FA044634B169465220FFF701FA04464E
:1027000004B138BD0A2000F0B6F8E8E72DE9F04141
:1027100006460D4601212648FEF78AFB8021254802
:10272000FEF786FB7E2000EA4607082417E007F044
:10273000800020B102211E48FEF77CFB03E002214D
:102740001B48FEF775FB01211948FEF773FB78065D
:10275000070E01211648FEF76BFB601EC4B2002C69
:10276000E5DC082417E005F0800020B102211048C4
:10277000FEF760FB03E002210D48FEF759FB012143
:102780000B48FEF757FB6806050E01210848FEF7C7
:102790004FFB601EC4B2002CE5DC80210548FEF72B
:1027A00049FB01210248FEF745FBBDE8F08100002E
:1027B000000C01400008014070B50446002520E0EF
:1027C00004F0800018B101200F49086002E00020E9
:1027D0000D490860FEF744FB01200B49091F086002
:1027E000FEF73EFB00200949C1F8A001072D02D1E8
:1027F0000120054908606006040EFEF731FB681CE5
:10280000C5B2082DDCDB70BDA481214200802142CD
:1028100010B50446FEF74CFB7820FFF7CDFFFEF71E
:1028200073FB0020FFF7C8FFFEF76EFB2046FFF7A3
:10283000C3FFFEF769FBFEF755FB10BD10B504465C
:10284000FEF736FB7820FFF7B7FFFEF75DFB402071
:10285000FFF7B2FFFEF758FB2046FFF7ADFFFEF78C
:1028600053FBFEF73FFB10BD30380A2801D2012090
:10287000704700207047002107E0002200E0521C52
:102880004EF660239A42FAD3491C8142F5D3704731
:10289000FEF72EFA534908604FF4A060FEF7B0FC33
:1028A000FEF7DAF94FF4614000F096F9FEF794FB79
:1028B000FEF76EF840F2DC50FEF7F0F9FEF7CCFCC4
:1028C000FEF7A8FC48A200211020FEF731FD4AA225
:1028D00002211020FEF72CFD4BA204211020FEF750
:1028E00027FD4DA206211020FEF722FDFFF7D1FBA8
:1028F000FFF74AFA0020FFF7D1FBFFF719FB70E062
:102900004948006808B9012000E0002046490860F5
:10291000C820FEF7C3F90020FEF798FB4349087072
:102920004348006801280BD108460078012807D1E8
:10293000002008703E490860FEF76CFCFDF754FE6D
:102940003B48006801280CD138480078032808D19A
:1029500000203649087036490860FEF75BFCFEF738
:1029600097F83248007805280DD100202F490870CB
:102970002F490860FEF74EFC2EA202212020FEF710
:10298000D7FC00F071F82E480078012801D1FFF73C
:10299000D5F92C48006810B12B48006808BB2B48BB
:1029A000FFF77CFBFEF75AF840F2DC50FEF776F9B1
:1029B00040F2DC50FEF772F940F2DC50FEF76EF99F
:1029C00040F2DC50FEF76AF940F2DC50FEF766F99F
:1029D00040F2DC50FEF762F90020FFF75FFBFEF7E4
:1029E00033F88DE71C0D0020D6B8CEC6C9EDB7DD93
:1029F000C8CFD6A4000000004B31BCFCCCEDBCD34A
:102A0000D6B8CEC6000000004B33BCFCC9BEB3FD37
:102A1000D6B8CEC6000000004B35BCFCD1E9D6A428
:102A2000D6B8CEC600000000B4012242380D002006
:102A300008000020C7EBB0B4CAD6D6B8000000002A
:102A4000040000203C812142200121420000B442C8
:102A500010B50246012000E050430B1EA1F1010415
:102A6000E1B2F9D110BD000010B586B054E00020ED
:102A7000FEF7ECFA37490870FEF7DCFD0446002C3F
:102A80004AD10120FEF7B3FD0446002C3DD105AB31
:102A9000632200210120FEF7EAFD0446002C2BD121
:102AA0002DA20221FEF744FCBDF81630BDF814201B
:102AB0002EA16846FDF7B2FB6A4604210020FEF70E
:102AC00037FC2E48FFF7EAFAFDF7C8FF40F2DC506A
:102AD000FEF7E4F840F2DC50FEF7E0F840F2DC509C
:102AE000FEF7DCF80020FFF7D9FAFDF7ADFF4FF451
:102AF000FA70FEF7D3F813E021A202212020FEF79E
:102B000017FC40F2DC50FEF7C9F8FEF783FB1FA26A
:102B100002212020FEF70CFC0E4800780128A6D1E7
:102B200000BFFEF777FB1CA200210846FEF700FC61
:102B30001DA202211020FEF7FBFB1FA20421102082
:102B4000FEF7F6FB20A206211020FEF7F1FB06B0EF
:102B500010BD0000380D00202020D6B8CEC6D1E927
:102B6000D6A4B3C9B9A62020000000002049443AE9
:102B7000256420B5C3B7D63A256420000000B442CE
:102B8000D1E9D6A4CAA7B0DC00000000C7EBB0B4FE
:102B9000CAD6D6B800000000D6B8CEC6C9EDB7DD9B
:102BA000C8CFD6A4000000004B31BCFCCCEDBCD398
:102BB000D6B8CEC6000000004B33BCFCC9BEB3FD86
:102BC000D6B8CEC6000000004B35BCFCD1E9D6A477
:102BD000D6B8CEC60000000010B586B0044601216C
:102BE0000820FFF715F801218804FEF7F1FF2A48B5
:102BF000FFF77CFC4FF48060ADF8100003208DF8E7
:102C0000120018208DF8130004A92448FEF77CF860
:102C10004FF40060ADF8100004208DF8130004A9F3
:102C20001E48FEF771F800940020ADF80400ADF8DE
:102C30000600ADF80800ADF80C000C20ADF80A0055
:102C400069461548FFF7F0FC01211348FFF742FCE5
:102C5000012240F225511048FFF7C5FC27208DF8CE
:102C6000140002208DF8150003208DF816000120B5
:102C70008DF8170005A8FEF78BFA41F61F41632077
:102C8000FFF70CFB00200649088000210548FFF7EC
:102C900038FB06B010BD000000480040000C0140A9
:102CA0003A0D00200004004090EA010F48BF81F077
:102CB000004100F11082421A3CBF801A89184FEA85
:102CC000D0524FF07F4C1CEA410FA2EBD15318BFFA
:102CD0009CEA026F00F03B804FF0004C4CEA002071
:102CE0004CEA012121FA03FC10EB0C0C1ED202F17C
:102CF000FF325FEA1C2040EBC25038BF70471CF027
:102D00007F0F4FEA400C18BFBCF17F4F38BF7047B0
:102D1000C3F12003994008BF20F00100BCF17F4FB0
:102D200038BF7047A0F1C04000F0C9B94FEA3C007D
:102D3000000A40EBC25028BF1CF0FF0F4FEA400CC6
:102D4000E6D018BFBCF17F4F38BF7047EAE79CEA76
:102D5000026F05D010EA5C0F08BF00F0004070471A
:102D600010B500F066F900BF64FBBE3E4FF47F0C67
:102D70001CEAD0121EBF1CEAD11392EA0C0F93EA90
:102D80000C0F00F0858090EA010F48BF42F480727A
:102D900040F4000C41F400002CF07F4120F07F4013
:102DA00000B58142A2EB03020FF2081CACEB504EBF
:102DB000C0F100009EF800E04FEA4E0E00FB0EFC52
:102DC00038BF49004FEA2C1C02F5FA020CFB0EF347
:102DD0004FEACE1E4FEA112C4FEAC1210EEB635E83
:102DE00042EB22420EFB0CFC4FEA1C5300FB03118A
:102DF0004FEA112C4FEA01310EFB0CFC4FEADC4C80
:102E000000FB0C11C14228BF09184CEB03335DF8DD
:102E100004EB10EB410143EBC250B2F57C0F38BF1D
:102E2000704729D512F0F00F1CBF00F1C04000F030
:102E300000407047008182838485868788898B8CD7
:102E40008D8E8F919293959697999A9C9D9FA0A213
:102E5000A3A5A7A8AAACAEB0B2B3B5B7B9BCBEC063
:102E6000C2C5C7C9CCCED1D4D7D9DCDFE2E6E9EC04
:102E7000F0F3F7FAFE0000004FEA400C0CF1807C02
:102E8000BCF17E4F28BF7047B0F1C04000F017B9C9
:102E900090EA010F0CEAD11348BF42F480726245F8
:102EA00038BF634507D213F47F0F16D080EA0100C4
:102EB00000F00040704710B500F0BBF8097EFC3E02
:102EC00000F005B880EA010000F00040704780EA99
:102ED000010000F0004000F0F2B812F47F0F04BFD0
:102EE0000248704780EA010000F0E9B80000C07FA6
:102EF000C10DD1F19E0206DB4FEA002343F00043EF
:102F000023FA02F07047004207D54FEA4001B1F1C1
:102F1000FE4F02D24FF00000704710B500F089F864
:102F200049922480002070476FEA2000704700001B
:102F30004FF47F0C1CEAD0121EBF1CEAD11392EA98
:102F40000C0F93EA0C0F00F0478090EA010F48BF86
:102F500042F480724FF0004C4CEA00204CEA012110
:102F600002EB0302A0FB0113A2F50002002918BF27
:102F700043F001035B0028BF4FEA330342EB2242D8
:102F80005FEA132C4CEBC2502EBFBCEB436FB2F583
:102F90007C0F70474FEA036CBCF1004F08BF20F074
:102FA0000100B2F57C0F38BF70470BD582F0FF02ED
:102FB00012F5803FC8BF704700F1C040D8BF00F095
:102FC0000040704700F5000C5FEA4C0C48BF7047AA
:102FD000B0F1C04000F073B890EA010F0CEAD113D1
:102FE00048BF42F48072624538BF634504D280EA2C
:102FF000010000F00040704710B500F01AF800BF63
:103000008900013E00F007B800F009B85FEA410C02
:103010005FEA1C6C08D080EA010000F050B85FEA5B
:10302000400C5FEA1C6CF6D14FF00040A0F5800028
:1030300070470EF1020E2EF0030E5EF8044B244290
:1030400004D44FEA4102B2F17F4F11D84FEA400356
:10305000B3F17F4F0CD80ED14FEAD07CB2F17F4F45
:103060000CEB4C0C0CF1020C08BF4CEBD17C04E0D7
:103070004FF0080C01E04FEAD17C0CEB4C0324FA32
:1030800003F404F00704B4F1040C06D20EEB840C34
:10309000BDE810404CF0010C6047DFE80CF0070879
:1030A00002024FF00040A0F5800010BD084642002B
:1030B00018BFD2F1807288BF00F0004010BDFF2120
:1030C00041EAD050C005704790EA010F48BF81F037
:1030D00000413FF5F0AD421A04D882F00042A0EB67
:1030E000020011444FEAD0524FF07F4C1CEA410FCE
:1030F000A2EBD15318BF9CEA026F4AD04FF0004CAC
:103100004CEA00204CEA012121FA03FCB0EB0C0C44
:103110000FD412F0FE0F36D05FEA4C001DD500121E
:1031200040EBC25038BF70471CF03F0F18BF7047CC
:103130000BE0A2F101025FEA1C2040EBC25038BF55
:1031400070471CF07F0F18BF7047C3F120039940F0
:1031500014BF401E20F00100704780084FEA122380
:1031600008BF7047B0FA80FCA2EB0C02CCF1280C2F
:1031700060FA0CF093EA122F04BF00EBC2507047C4
:103180004FEAC3707047130A5FEADC1008BF70474C
:10319000F6E79CEA026F04D010EA5C0F08BF00203B
:1031A000704710B5FFF745FF40DFF63E81F0004065
:1031B0007047040000080000000000000002000149
:1031C00000001000E4310008000000203C0D000069
:1031D0002C010008203B00083C0D00208409000061
:1031E00090010008120001530100016004A24A048A
:1031F0000B900A010203040607080900012114616B
:1032000018100602040608FF01511A0211000152AB
:10321000F8563233061004100C0603711D200440CA
:10322000C07803200500043F0403100800007088E4
:10323000FC08302E100E1820FF211E0000F008F0B0
:1032400000E0183E4005211C031E111388700FE09A
:103250000C1E2123241927211010160E702005E0C2
:103260001804026A300B071820400000020418E01E
:1032700069200420180770300E4080F08040400024
:103280000202010F01022832F0D4100401011F04D0
:103290007145C00480B0705642010171B98330306D
:1032A0002C340860180400601806401006E010086E
:1032B00008107210070F102020100FF04610001099
:1032C0000620203F20202D3004700808C210063050
:1032D00028242221E910063008888848082006188A
:1032E00020202011CC33C020321407070424243FAF
:1032F000243E11204007080800001921202405E081
:1033000010888810430F11101006380808C838209C
:10331000300400003F8D4370886080071C2221210B
:10332000221C9010060031222211901161C2C0C2ED
:103330006280C65108100440201070140701020476
:103340000810203031014300040113000015224011
:10335000321125130402F2137048D135431330366D
:103360000F1406C030C828E80020080718272423B7
:10337000140B6F22387E200D203C230202273820B8
:1033800008F88888FF250E21D017C030102708388C
:10339000AD15303406080008F808403120154021EA
:1033A000303004E8081030A0042320181023000354
:1033B0005E21403638ED200520221E024011A41067
:1033C00009F808203F21010121252208529580514A
:1033D000112006C08080807F0E2007F888C0281842
:1033E0000870400501263820405200A013203020EC
:1033F0001004F800F85417203F60214F4004F830C3
:10340000C0601220E4363F5F21B025EF41B021D0EB
:1034100033F0008083010020300718242438504FF7
:10342000C0250131C034040C3020B021C137382010
:10343000B032189F42188231A041D023001F90342F
:10344000081F000878880000F1100407380E60118A
:103450009B12F8B5401D00033C0700073C03000821
:103460001868808068180820302C03032C3020084E
:1034700038C82F5150218F213F1804203826512958
:10348000494C0400FE020803267FE85804000C3073
:103490001F1805000106382A111D3EFEA90327400A
:1034A0004030100400000412FE04E50352800102C3
:1034B00013001A1DB103180719242222223F0042CB
:1034C00000255A3FC0312119D01A0ED04320114B8C
:1034D0004388F8102210B35140121F3F2322131EBD
:1034E0001AF0428618D0517724076B949494936015
:1034F0000B310F158041F3BC048098988003520073
:10350000125901153B31311406203F24022D8F2919
:1035100030ADB00361D7214B2103112BC16071A0E5
:1035200045A031202D400493FFA1E04280E033A06C
:10353000FF4C315019A13E20720551C013332401B4
:103540002219E056E046421F8035224160151031B5
:10355000EC21411C05010E3008720421702563180E
:10356000040F300C4F320F2C41A16007312E0E3169
:103570002000303C0580818E70A20465A73C0421A8
:10358000302C8004E90019115DCD05410834040296
:10359000027CB04F404060041E0236054D60054D70
:1035A000CF0518141010FF1090003F4848444444C1
:1035B0004270000444827F9723FF490111411C059A
:1035C0002030AC6312054C04F8090E8803140E2257
:1035D000672212928040211608162140081C0E1006
:1035E00010D0FF9014E4AFA4A4A4AFE45F041304CC
:1035F0000377240A894B2A1A0E1A2A4B88281C059D
:1036000020FF2020530337FF089A18151030100FA1
:10361000884821110D030D11214181001060028C99
:10362000C21AF2A522F8B1240D04047E01804730AD
:103630000F10270047E02007404042CC009001389F
:1036400006FF101116107A14071028603F10104161
:10365000280C40F0002424A4FE2322003E5E172202
:103660003EFF10070601FF010640BD127FC3164151
:103670001F1EFCFB041C0814155694543414A00699
:103680001640641D2C061C0441817F32061305037D
:1036900010100EEF242480E49C105454FF547C102E
:1036A0001C400E7F21512618274445455F4545445F
:1036B000A0300B109252321E3252921210A0440CC3
:1036C00000211840807F0830040931401E10400559
:1036D00042F8E0128061111D158E11FA11074006A3
:1036E00080FE8282FE0531E11586300520BF403F15
:1036F00023224F281C0CFE225A8620102824E32463
:10370000287206157A2006040827110DA012055FFD
:1037100020040002FA401C084020504C434C50103A
:1037200007441008184884443F404458414E6058AC
:103730004740204C070004C40404FCE00525201F7A
:1037400048400C0410057F41414120211F100644D0
:103750005454547F042A4420580C7F201000FF1535
:10376000151555957F0020109020988888E98E883F
:1037700088A89800024281B63C07844B281028474D
:10378000E90329D81724FC5E15673D4F0430060273
:103790000242827F082D80072C040202C2630422A9
:1037A00082014E02670451043D78062C0F20180850
:1037B000EAACA8A8AFA8A8ACEA08280908223E42AB
:1037C0003807FF020212221E9F13F2920122FE0509
:1037D00012F2502C040404FFAB061407070404443F
:1037E000847FB0C280010D109F042405020C80600C
:1037F0007533C8085F1B0202401D2C083C050601FA
:103800000618E9061C040848886107370090A819C3
:1038100040100620100C0304293E433F062D3F05AF
:1038200031A85EFF370735B91128323FC11C057832
:103830000002E2F70452FE0412E2E12AFF631216CC
:103840000443024C423D110629E01C05090AC80840
:103850004C082C061F0010201F22031C04182641B0
:10386000DB053D100642087E3EF000031F1F0831B5
:10387000083C050E0140809203480440301E44314C
:103880009E2C05008181411D034E011F032E81DE08
:10389000051808FA02FE4020D8176611983D1C034F
:1038A0007E678103297081403E1030032101327F01
:1038B0000615803DA0035C0A1000FC24E4242223AA
:1038C000E2A003100783601F804126A015201C047E
:1038D000020CC0A4082004484848C2168ACF227FA0
:1038E000982C091E925E20173846F11D092FF80703
:1038F0005F033EE25F032DF204140DFF2011090562
:1039000003FF0305091120B0280584E41C07231CCC
:1039100004A4642460031D53088BFF00221D0D06C0
:10392000538292012EFE3C055C0E4040222410483A
:10393000807F0408182422B0048C070001E21CE0F8
:1039400000BE082E0C19081D5D072D60042009001B
:103950001088C43300BEAA0122BEAF3160530A12E0
:103960006221301C0490888620054F838CD908255D
:10397000FD5707005D1D1A031C0F84E45C44C4203E
:1039800010E82724E4342CE0FF0414057F10103FD6
:10399000A65C0709093F49897F40039D35051DDA6B
:1039A00006239048432D7F0A5E8060031C04FC249C
:1039B000A4FF063FA362880A4C0D1F2058475048B9
:1039C0004542454850407F075C06F2121212F268E9
:1039D000072DF90316270F3E27FF034DE0049D80B6
:1039E000033D4004AD80031C080C44241404050668
:1039F000A40424052444140CC11DB8032E41BD03A6
:103A00004E41CF0526FC5B3F3DA687033DC0041316
:103A100010136F12FF731A12100D1E000421411CA7
:103A20000454565501041F54FC1B0A1D10043C0984
:103A30004223222212120A46E80545E0340B804058
:103A4000B08E808087986080E03DC5043E00A3046E
:103A5000CCC400D6B8CEC6C4A3BFE9B2E2CAD4B3C0
:103A6000CCD0F2BCFCCCEDBCD3C9BEB3FDD1E9D601
:103A7000A4C7EBB0B4CAD6D5FDB3A3D4D9D2BBB4D6
:103A8000CEB6D4B1C8C1BDB3C9B9A6CAA7B0DCC946
:103A9000FAB0E5BCF5B1A3B4E6C2BCC8EBB5C3B798
:103AA000D6C8B7C8CFB7B5BBD8C7E5BFD5BFE2D674
:103AB000A4C9EDB7DD0020212223242526272829AB
:103AC0002A2B2C2D2E2F30313233343536373839DE
:103AD0003A3B3C3D3E3F40414243444546474849CE
:103AE0004A4B4C4D4E4F50515253545556575859BE
:103AF0005A5B5C5D5E5F60616263646566676869AE
:103B00006A6B6C6D6E6F707172737475767778799D
:103B10007A7B7C7D7ECD0CD2FF012DF10C00000064
:04000005080000F1FE
:00000001FF
