:020000040800F2
:10000000B8160020D9010008A1100008750D0008DD
:100010009D10000889090008632600080000000000
:10002000000000000000000000000000091F0008A0
:10003000590A000800000000E11A00080321000826
:10004000F3010008F3010008F3010008F3010008C0
:10005000F3010008F3010008F3010008F3010008B0
:10006000F3010008F3010008F3010008F3010008A0
:10007000F3010008F3010008F3010008F301000890
:10008000F3010008F3010008F3010008F301000880
:10009000F3010008F3010008F3010008F301000870
:1000A000F3010008F3010008F3010008F301000860
:1000B000F301000865210008F3010008F3010008BE
:1000C000F3010008F3010008F3010008F301000840
:1000D000F3010008F3010008F3010008BD23000844
:1000E000F3010008F3010008F301000800F002F832
:1000F00000F063F80AA090E8000C82448344AAF15F
:100100000107DA4501D100F058F8AFF2090EBAE85C
:100110000F0013F0010F18BFFB1A43F0010318473B
:10012000A8300000C830000010F8013B0A4413F06A
:10013000030408BF10F8014B1D1108BF10F8015B44
:10014000641E05D010F8016B641E01F8016BF9D133
:10015000002D15D010F8014B03F00C030C2BA1EB74
:1001600004040ABF10F8013BA4EB8314A4EB03249E
:1001700005F1010314F8016B5B1E01F8016BF9D561
:10018000914238BF10F8013BD1D3704700230024BF
:1001900000250026103A28BF78C1FBD8520728BF97
:1001A00030C148BF0B607047642900F04B800020CD
:1001B00070471FB51FBD10B510BD00F0D8F911462E
:1001C000FFF7F7FF02F072FB00F0F6F903B4FFF758
:1001D000F2FF03BC00F000FA0948804709480047D5
:1001E000FEE7FEE7FEE7FEE7FEE7FEE7FEE7FEE7E7
:1001F000FEE7FEE704480549054A064B7047000044
:1002000005210008ED000008B8100020B8160020F5
:10021000B8120020B81200200FB41CB5084B06AA73
:100220007B4469460090059800F089F90446002057
:10023000694600F097F920461CBC5DF814FB0000ED
:10024000410300002DE9F04106460024106875299D
:10025000314616A510D0AFF30080002802DA4042E4
:1002600013A507E031688A0701D512A502E0490706
:1002700004D511A5012401E0AFF3008000210A227A
:1002800006F1240709E0B0FBF2FCB0FBF2F302FB3D
:100290001C00303078541846491C0028F3D12346FE
:1002A0002A463046BDE8F04100F0EBB800000000FF
:1002B0002D0000002B000000200000002DE9F05F61
:1002C000894604464FF0000ADFF874B1FB44C0F8D9
:1002D00020A02046E1688847002874D0252806D051
:1002E000D4E901219047206A401C2062F1E70026F2
:1002F0005F462046E16888472028054607DB312D08
:1003000005D2781910F8200C08B10643F1E7B007C0
:1003100001D526F00406C4F81CA00027C4F818A0D4
:100320002A2D09D0284602F065FA38B304EB870875
:10033000303DC8F8185019E059F8041B204604EB6A
:1003400087029161E1688847012F054618D1E0696D
:10035000002820DA26F020061DE0D8F8180000EB6F
:10036000800005EB40003038C8F818002046E168EE
:100370008847054602F03EFA0028EED1012F0AD048
:100380002E2D08D12046E16888477F1C0546022FA4
:1003900046F02006C4DBA069002803DA404246F09C
:1003A0000106A061F00701D026F010066C2D0BD0DD
:1003B000682D09D04C2D39D06A2D35D0742D35D00B
:1003C0007A2D33D016E038E0E1682F462046884782
:1003D000B842054609D16C2F26D04FF48060E16801
:1003E000064320468847054604E06C2F1AD04FF498
:1003F000807006430DB3A5F14100192802D82035BD
:1004000046F400664A462946204626604E46FFF7D7
:10041000CBFE80B101280BD0F61D26F0070000F1BD
:10042000080956E74020E4E78020D8E70020D6E717
:1004300006F104094DE7284652E7206ABDE8F09F1F
:10044000E62E0000401ECAB210F8011F8A4202D0F8
:100450000029F9D10020704730B505460B462A46E1
:1004600013F8014B12F8010B08B1A042F8D01CB1EF
:10047000002802D06D1CF1E7284630BD7047704758
:1004800070472DE9F0470D4699469246044600F123
:1004900024080168880604D5E06921F01001216074
:1004A00000E00120A84201DD471B00E00027A16910
:1004B0007A1902EB0900081AA0612078C00602D45C
:1004C0002046AFF30080002608E0D4E901211AF8A5
:1004D00006009047206A401C761C20624E45F4DBE3
:1004E0002078C0060AD52046AFF3008006E0D4E9A4
:1004F000012130209047206A401C2062381EA7F15D
:100500000107F4DC07E0D4E9012118F80500904761
:10051000206A401C2062281EA5F10105F3DC20465C
:10052000AFF300802078000602D50220BDE8F087F6
:100530000120FBE701694A1C02610878704700B599
:100540008FB0CDE901310021059105497944CDE90C
:10055000031011466846FFF7B1FE0FB000BD000062
:10056000E5FFFFFF0A6802F8010B0A607047754655
:1005700000F02CF8AE4605006946534620F007000F
:10058000854618B020B5FFF735FEBDE820404FF096
:1005900000064FF000074FF000084FF0000B21F06D
:1005A0000701AC46ACE8C009ACE8C009ACE8C0093A
:1005B000ACE8C0098D46704710B50446AFF3008023
:1005C0002046BDE81040FFF701BE0000004870471C
:1005D000581000207047000001491820ABBEFEE70C
:1005E00026000200F8B50027002525E1052F28D2B6
:1005F000DFE807F003285280A700701CC6B290A263
:100600000221002000F01EFE00F09EFF0446ACB95F
:10061000012000F076FF044664B98EA2022100207A
:1006200000F010FE90A20421002000F00BFE002636
:10063000012706E0204601F04FFD02E0204601F0D0
:100640004BFDF1E0701CC6B28CA20221002000F02C
:10065000F9FD85A20421002000F0F4FD00F074FFF4
:100660000446ACB9022000F04CFF044664B979A2FC
:100670000221002000F0E6FD7BA20421002000F012
:10068000E1FD0026022706E0204601F025FD02E0FC
:10069000204601F021FDC7E07DA20221002000F0EC
:1006A000D1FD71A20421002000F0CCFD00F0B1FFCB
:1006B00004465CB97BA20221002000F0C3FD6AA2BF
:1006C0000421002000F0BEFD03270EE07AA20221E3
:1006D000002000F0B7FD64A20421002000F0B2FD6C
:1006E000204601F0F9FC002600274FF4FA7002F0D2
:1006F000B7F899E075A20221002000F0A3FD5AA2EC
:100700000421002000F09EFD4FF4FA7002F0A8F8DA
:1007100000F09CFF04465CB971A20221002000F0A9
:1007200091FD51A20421002000F08CFD042703E07C
:100730000027204601F0D0FC4FF47A7002F090F8C8
:1007400072E06CA20021084600F07CFD6DA202213F
:10075000002000F077FD70A20421002000F072FD5F
:1007600026E0002000F0FEFB704908700846007883
:10077000022805D100200870002D01DD681EC5B2D9
:100780006A480078042806D1002068490870632D63
:1007900001DA681CC5B266A20621282000F052FDCD
:1007A000012002232A4606210090412000F018FE75
:1007B0005E4800780328D4D100205C49087029469F
:1007C000022000F060FF0446002C26D100F0ACFCB3
:1007D00058A20221002000F035FD23A204210020B0
:1007E00000F030FD40F2DC5002F03AF800F09CFCE2
:1007F00055A20021084600F025FD57A20221102035
:1008000000F020FD58A20421102000F01BFD5AA288
:100810000621102000F016FDF8BD00F085FC002731
:10082000204601F059FC00BF00BF4FF4C87002F031
:1008300017F80A2E00D100E0D8E600BF00BFEBE7B2
:1008400020202020C7EBB0B4CAD6D6B82020202064
:100850000000000020202020D6B8CEC6D5FDB3A3CE
:100860002020202000000000202020202020202008
:10087000202020202020202000000000202020C751
:10088000EBD4D9B0B4D2BBB4CE20202000000000FD
:100890002020B6D4B1C8C1BDB4CED6B8CEC62020B3
:1008A0000000000020202020B6D4B1C8B3C9B9A6EA
:1008B000202020200000000020202020B6D4B1C835
:1008C000CAA7B0DC20202020000000002020C9FAA8
:1008D000B3C9D6B8CEC6C4A3B0E52020000000003E
:1008E000C9FAB3C9D6B8CEC6C4A3B0E5B3C9B9A6D0
:1008F0000000000020B0B44B34BCD32CB0B44B3259
:10090000BCF5200020202020B0B44B33B1A3B4E6C6
:1009100020202020000000002020303D3C204944C1
:10092000203C3D393920202000000000280D002007
:1009300049443D002020C2BCC8EBD6B8CEC6B3C9DE
:10094000B9A6202000000000D6B8CEC6C9EDB7DD9C
:10095000C8CFD6A4000000004B31BCFCCCEDBCD30A
:10096000D6B8CEC6000000004B33BCFCC9BEB3FDF8
:10097000D6B8CEC6000000004B35BCFCD1E9D6A4E9
:10098000D6B8CEC60000000000BFFEE708B50121C2
:10099000082001F0C7F814208DF803004FF48040C0
:1009A000ADF8000003208DF802006946174800F0FA
:1009B00049F948208DF803004FF40040ADF80000DD
:1009C00003208DF802000121042001F0ABF848203B
:1009D0008DF803004FF48070ADF8000003208DF80F
:1009E000020069460A4800F02DF94FF4804107489B
:1009F00000F0BEF94FF40041044800F0B9F94FF49B
:100A00008071034800F0B4F908BD0000000C0140FB
:100A10000008014010B54FF48041024800F0A8F9E9
:100A200010BD0000000C014010B54FF48041024899
:100A300000F09CF910BD0000000C014070B50546A7
:100A40000C460026284601F09FF9064626EA0401D6
:100A5000284601F021FE70BD7047000038B5002423
:100A600045A20021084600F0EDFB48A2022100202B
:100A700000F0E8FB4AA20421002000F0E3FB46E07E
:100A8000002000F06FFA4B490870084600780228F1
:100A900005D100200870002C01DD601E84B245489D
:100AA0000078042806D1002042490870632C01DA3E
:100AB000601C84B23F480078012800D141E03D48E5
:100AC0000078052816D100203A49087000F0FCFC97
:100AD00005463DB900F028FB37A20221002000F0B6
:100AE000B1FB02E0284601F0F7FA40F2DC5001F0D9
:100AF000B7FE26E035A20621282000F0A3FB012046
:100B00000223224606210090412000F069FC29487A
:100B100000780328B4D10121204600F09FFC05464F
:100B20003DB900F001FB2AA20221002000F08AFB5F
:100B300002E0284601F0D0FA40F2DC5001F090FECD
:100B400000BF00F0F1FA27A20021084600F07AFB6E
:100B500028A20221102000F075FB2AA204211020F7
:100B600000F070FB2BA20621102000F06BFB002090
:100B70001049087038BD00004B34BCD3204B32BC48
:100B8000F5204B33C8B7C8CF0000000020204B35FC
:100B9000C7E5BFD5D6B8CEC6BFE220200000000012
:100BA0004B31B7B5BBD820303D3C49443C3D393989
:100BB00000000000280D002020C7E5BFD5D6B8CE24
:100BC000C6BFE2B3C9B9A6200000000049443D00F9
:100BD0002020C9BEB3FDD6B8CEC6B3C9B9A6202061
:100BE00000000000D6B8CEC6C9EDB7DDC8CFD6A488
:100BF000000000004B31BCFCCCEDBCD3D6B8CEC657
:100C0000000000004B33BCFCC9BEB3FDD6B8CEC655
:100C1000000000004B35BCFCD1E9D6A4D6B8CEC646
:100C2000000000000146088870470000044900E009
:100C3000521C11F8013B002BFAD1500870470000FC
:100C4000600C00202DE9F04102460025002600201E
:100C500000230024002791F803C00CF00F0591F841
:100C600003C00CF0100CBCF1000F03D091F802C0CF
:100C70004CEA050591F800C0BCF1000F31D01468B2
:100C800000202BE04FF0010C0CFA00F3B1F800C08B
:100C90000CEA03069E4220D183004FF00F0C0CFAA1
:100CA00003F7BC4305FA03FC4CEA040491F803C0C3
:100CB000BCF1280F06D14FF0010C0CFA00FCC2F871
:100CC00014C00AE091F803C0BCF1480F05D14FF001
:100CD000010C0CFA00FCC2F810C0401C0828D1D34B
:100CE0001460B1F800C0BCF1FF0F34DD546800207F
:100CF0002EE000F1080C4FF0010808FA0CF3B1F8EF
:100D000000C00CEA03069E4221D183004FF00F0C75
:100D10000CFA03F7BC4305FA03FC4CEA040491F80F
:100D200003C0BCF1280F05D100F1080C08FA0CF83B
:100D3000C2F8148091F803C0BCF1480F07D100F14C
:100D4000080C4FF0010808FA0CF8C2F81080401C9B
:100D50000828CED35460BDE8F08102460020936895
:100D60000B400BB1012000E000207047416170474B
:100D70000161704700BFFEE7002001E0411CC8B2DE
:100D80000A28FBDB7047000008B50121102000F0A5
:100D9000C9FE4FF48070ADF8000003208DF802000A
:100DA00014208DF8030069460648FFF74BFF4FF407
:100DB0000070ADF8000069460248FFF743FF00F0FD
:100DC0001DF808BD000C014010B50120094908605C
:100DD0000949C1F8A001FFF7CFFF002005490860CD
:100DE000FFF7CAFF00200449C1F8A001FFF7C4FFC4
:100DF00010BD0000A48121420080214210B50020D6
:100E00000549086001200549C1F8A001FFF7B4FFBA
:100E100001200149086010BDA481214200802142C7
:100E200010B501200D490860FFF7A6FF01200C490D
:100E3000C1F8A001FFF7A0FF4FF400710948FFF7C8
:100E40008CFF08B1012400E0002400200349091FA1
:100E50000860FFF791FF204610BD0000A4812142E9
:100E600000802142000C01407CB50546EF208DF842
:100E7000000001208DF801001A480068000E8DF86E
:100E8000020018480068000C8DF80300154800881F
:100E9000000A8DF80400134800788DF8050007203B
:100EA0008DF8060000208DF807000F49088012E039
:100EB000012001F0D5FC0C48008800F4004050B13E
:100EC00000200949088069460848FFF7C5FA04462A
:100ED0000CB120467CBD681E80B2051EE8D100BF63
:100EE000F8E70000440000202A0D0020380D002003
:100EF00008B50121142000F015FE0420ADF8000013
:100F000048208DF8030069461548FFF79BFE08202E
:100F1000ADF8000048208DF8030069461048FFF73F
:100F200091FE1020ADF8000048208DF803006946BE
:100F30000B48FFF787FE2020ADF8000048208DF811
:100F4000030069460648FFF77DFE4020ADF800002B
:100F500048208DF8030069460148FFF773FE08BD7D
:100F60000008014010B5044614B101202B49087057
:100F70002A480078002835D02948006878B12848E8
:100F8000001D006858B126480830006838B1244870
:100F90000C30006818B122481030006810BB0A20DD
:100FA00001F05EFC00201D4908701D48006808B96A
:100FB000012010BD1A48001D006808B90220F8E79A
:100FC00017480830006808B90320F2E714480C30CD
:100FD000006808B90420ECE7114810300068D8B95F
:100FE0000520E6E70E480068012815D10C48001DD1
:100FF0000068012810D10A480830006801280BD188
:1010000007480C300068012806D1054810300068F8
:10101000012801D1014908700020CAE74E000020D4
:101020000801214210B50446412C25D1082108466B
:10103000FFF704FD3D21112001F02EFB8621172032
:1010400001F02AFB7F21262001F026FB1E212D2006
:1010500001F022FB00212C2001F01EFB8D212A2013
:1010600001F01AFB3E212B2001F016FB012001F0BC
:10107000C8FB00F093FB01E0FF2010BD0020FCE75F
:1010800000BF0549098801F040010029F9D0024953
:10109000091D0880704700000048004000BFFEE7BF
:1010A0007047000070B5002100230F22C47804B3FC
:1010B000154C246804F4E064C4F5E064210AC1F12D
:1010C0000403CA40447804FA03F1847814402143AD
:1010D00009010E4C0678A155047804F01F0501247F
:1010E000AC4005786D11AD0005F1E025C5F8004173
:1010F00009E0047804F01F050124AC40044D067893
:10110000761145F8264070BD0CED00E000E400E0EB
:1011100080E100E002490143024A1160704700008B
:101120000000FA050CED00E010B5002000F001F819
:1011300010BD70B50646002415E004F1B001C8B238
:1011400001F02CFB002001F029FB102001F026FB10
:10115000002504E0304601F037FB681CC5B2822D43
:10116000F8DB601CC4B2082CE7DB70BD10B5FFF7DC
:101170000BFEAE2001F012FB002001F00FFB10204F
:1011800001F00CFB402001F009FBB02001F006FB50
:10119000812001F003FBFF2001F000FBA12001F002
:1011A000FDFAA62001F0FAFAA82001F0F7FA3F2094
:1011B00001F0F4FAC82001F0F1FAD32001F0EEFAC0
:1011C000002001F0EBFAD52001F0E8FA802001F0D0
:1011D000E5FAD82001F0E2FA052001F0DFFAD92083
:1011E00001F0DCFAF12001F0D9FADA2001F0D6FAA8
:1011F000122001F0D3FADB2001F0D0FA302001F008
:10120000CDFA8D2001F0CAFA142001F0C7FAAF2000
:1012100001F0C4FA10BD70B504460D4605F1B001E9
:10122000C8B201F0BBFAA11CC1F3031141F01000D8
:1012300001F0B4FAA11C01F00F0141F0010001F02E
:10124000ADFA70BD2DE9F0470746884616460025E1
:1012500080E03078A02843DD00253AE0702F04DDDF
:10126000002708F1020000F0FF0830783C4911F82F
:10127000151088422CD17078012101EB4501384AC4
:10128000515C884224D141463846FFF7C4FF002410
:1012900006E004EB4511334A505C01F095FA641CFA
:1012A000102CF6D308F10100C1B23846FFF7B3FFA6
:1012B000002407E004EB451110312A4A505C01F08C
:1012C00083FA641C102CF5D307F11000C7B204E0B8
:1012D0006D1C254800688542C0D300BFB61C39E0AC
:1012E0007A2F04DD002708F1020000F0FF083178B2
:1012F0001E48FFF7A7F88146B9F1000F29D04146F3
:101300003846FFF788FF002409E099F800102039DB
:1013100004EB0111164A505C01F056FA641C082CCB
:10132000F3D308F10100C1B23846FFF774FF00247F
:101330000AE099F80010203904EB011108310C4A39
:10134000505C01F041FA641C082CF2D307F108004C
:10135000C7B2761C307800287FF47BAFBDE8F087F9
:10136000600C002040060020240D0020C30C00204B
:10137000500000202DE9F04107460E46904600251A
:101380000024A8F12000C5B2812F02DD0027B01C87
:10139000C6B231463846FFF73EFF002407E004EBB3
:1013A00005110E4A505C01F00FFA601CC4B2082C03
:1013B000F5DB701CC1B23846FFF72DFF002408E0B2
:1013C00004EB05110831054A505C01F0FDF9601C81
:1013D000C4B2082CF4DBBDE8F0810000500000200E
:1013E0002DE9F0470546894690461E46DDF820A0C7
:1013F00000242FE0301B401EC1B20A2001F02AFB5E
:10140000B8FBF0F00A21B0FBF1F201FB1207A7B91B
:10141000BAF1000F08D0082101FB0451C8B23022F4
:101420004946FFF7A7FF07E0082101FB0451C8B2B6
:1014300020224946FFF79EFF0AE007F13001CAB2B9
:10144000082101FB0451C8B24946FFF793FF00BFD2
:10145000601CC4B2B442CDDBBDE8F0872DE9F04199
:1014600004460D4600F07BFD00F050FD012000F029
:1014700070FD072000F07BFD0C2000F082FD2012A3
:10148000FFF7FEFDE0B2FFF7FBFD2812FFF7F8FDC6
:10149000E8B2FFF7F5FD142000EB2420E1B2084488
:1014A00000EB2520E9B200EB0108404600F048FDC2
:1014B0004FF4FA60FFF7D8FC07460FB17E7A00E0E0
:1014C000FF263046BDE8F08170B500F048FD00F021
:1014D0001DFD012000F03DFD032000F048FD0D2022
:1014E00000F04FFD1126304600F02AFD4FF4FA605F
:1014F000FFF7BAFC05460DB16C7A00E0FF242046E8
:1015000070BD2DE9F041054600F029FD00F0FEFC1C
:10151000012000F01EFD042000F029FD022000F053
:1015200030FD2846FFF7ACFDEF1D384600F008FD02
:101530004FF4FA60FFF798FC06460EB1747A00E0AB
:10154000FF242046BDE8F08170B500F008FD00F0F2
:10155000DDFC012000F0FDFC032000F008FD01206F
:1015600000F00FFD0526304600F0EAFC4FF4FA606B
:10157000FFF77AFC05460DB16C7A00E0FF242046A7
:1015800070BD2DE9F04781460D4616461F4600F016
:10159000E6FC00F0BBFC012000F0DBFC082000F0C2
:1015A000E6FC1B2000F0EDFC4846FFF769FD281221
:1015B000FFF766FDE8B2FFF763FD3012FFF760FD4D
:1015C000F0B2FFF75DFD09F1240000EB2520E9B240
:1015D000084400EB2620F1B200EB010A504600F06F
:1015E000AFFC4FF4FA60FFF73FFC044664B194F897
:1015F0000980E07AA17A00EB01203880607B217BB2
:1016000000EB0120788001E04FF0FF084046BDE884
:10161000F08770B500F0A3FC00F078FC012000F02A
:1016200098FC032000F0A3FC032000F0AAFC07268E
:10163000304600F085FC4FF4FA60FFF715FC0546D4
:101640000DB16C7A00E0FF24204670BD70B500F04B
:1016500086FC00F05BFC012000F07BFC032000F026
:1016600086FC052000F08DFC0926304600F068FC61
:101670004FF4FA60FFF7F8FB05460DB16C7A00E015
:10168000FF24204670BD2DE9F04106460C4600F0CF
:1016900066FC00F03BFC012000F05BFC062000F043
:1016A00066FC062000F06DFC3046FFF7E9FC2012D6
:1016B000FFF7E6FCE0B2FFF7E3FC06F10D0000EBFC
:1016C0002420E1B200EB0108404600F039FC4FF461
:1016D000FA60FFF7C9FB07460FB17D7A00E0FF25EE
:1016E0002846BDE8F081000000B589B00121084618
:1016F00000F0F8F90121042000F014FA18208DF808
:1017000023000220ADF8200003208DF8220008A954
:101710001A48FFF797FA4FF0804000F096FD00203E
:10172000ADF81A00ADF8160044F61F60ADF81800C9
:101730004720ADF8140000208DF81C0005A94FF0DB
:10174000804000F0E9FD01A800F0D8FD6020ADF870
:1017500004000020ADF80C000120ADF806000020C8
:10176000ADF80A0001A94FF0804000F075FD01219D
:10177000880700F044FD09B000BD000000080140EA
:1017800010B5044621464FF0804000F0C1FD10BD69
:1017900010B503211420FFF751F910BD10B5142026
:1017A00000F0F2FA044604F0030018B903211420F3
:1017B00000F010FC10BDF0B587B0054600270821E9
:1017C0000846FFF73BF900210D2000F065FF80215E
:1017D0000E20FFF733F993208DF8040020208DF8B8
:1017E000050006A801AB022201A900900C2000F020
:1017F0001AF8064686B9002407E001A8005D2855BE
:1018000001A8005D4740601CC4B2042CF5DB01A8B0
:10181000005DB84200D0FE2680210E2000F0DAFBE9
:10182000304607B0F0BD2DE9FE4F0646884691468A
:101830009A46DDF830B0FE20029000200190009022
:101840000C2E06D00E2E09D11220019010200090EF
:1018500005E0772001903020009000E000BF00BF3D
:10186000019840F08001022000F016FF8021042042
:10187000FFF7E4F80021012000F00EFF80210A208C
:1018800000F0A8FB002505E018F80510092000F07D
:1018900003FF6D1C4D45F7D33146012000F0FCFEDF
:1018A0000C2E03D180210D2000F094FB4FF4FA653B
:1018B00000BF042000F068FA04466D1E35B104F044
:1018C000010018B9009820400028F2D080210D2096
:1018D000FFF7B4F895B3062000F056FA00F01B00AD
:1018E00068BB002002900198204000F0010008B180
:1018F000FF2002900C2E24D10A2000F045FA044665
:101900000C2000F041FA00F007072FB1601E07EB32
:10191000C000CBF8000002E0E000CBF8000004B902
:101920000124122C00DD1224002505E0092000F01E
:101930002BFA0AF805006D1CA542F7D301E0FE2042
:10194000029080210C2000F045FB0021012000F0D6
:10195000A3FE0298BDE8FE8F08B50121082000F023
:10196000E1F84FF48050ADF8000010208DF803002E
:1019700002208DF8020069462448FFF763F901212F
:10198000082000F0CFF84FF40050ADF8000004201C
:101990008DF8030002208DF8020069461B48FFF70E
:1019A00051F90121082000F0BDF80220ADF8000037
:1019B00010208DF8030002208DF8020069461348BC
:1019C000FFF740F90121082000F0ACF80120ADF844
:1019D000000010208DF8030002208DF802006946F7
:1019E0000A48FFF72FF90121042000F09BF880201E
:1019F000ADF8000010208DF8030002208DF80200E1
:101A000069460348FFF71EF908BD0000000C0140BD
:101A10000008014070B588B005460C46082108460C
:101A2000FFF70CF807210D2000F036FE03211420EB
:101A300000F0D0FA8DF8085007A802AB012202A9E5
:101A400000900C20FFF7EFFE06464EB907981028CD
:101A500006D19DF8080020709DF80900607000E034
:101A6000FE26304608B070BD10B54FF480511B48BB
:101A7000FFF77EF9012000F0C4FE4FF480511748B3
:101A8000FFF774F9012000F0BCFE4FF480511348B9
:101A9000FFF76EF90A2000F0B4FE022000F074F99E
:101AA0000F21012000F0F8FD3D21112000F0F4FD90
:101AB0001E212D2000F0F0FD00212C2000F0ECFD77
:101AC0008D212A2000F0E8FD3E212B2000F0E4FDCE
:101AD0004021152000F0E0FD002010BD000C014069
:101AE0007047000029B1064AD2690243044BDA610B
:101AF00004E0034AD2698243014BDA617047000077
:101B00000010024029B1064A12690243044B1A61CF
:101B100004E0034A12698243014B1A6170470000D6
:101B20000010024029B1064A92690243044B9A61AF
:101B300004E0034A92698243014B9A6170470000B6
:101B40000010024029B1064AD2680243044BDA6011
:101B500004E0034AD2688243014BDA607047000018
:101B60000010024030B500210022002400232D4D3A
:101B70006D6805F00C0121B1042905D0082923D195
:101B800005E0294D056022E0274D05601FE0254D49
:101B90006D6805F47012234D6D6805F480340225DC
:101BA00005EB92421CB9214D554305600BE01D4DDC
:101BB0006D6805F400351DB11C4D5543056002E00C
:101BC000194D5543056002E0174D056000BF00BF89
:101BD000144D6D6805F0F0010909154D6B5C056841
:101BE000DD4045600F4D6D6805F4E061090A104D58
:101BF0006B5C4568DD4085600A4D6D6805F4605199
:101C0000C90A0B4D6B5C4568DD40C560054D6D68CC
:101C100005F44041890B074D6B5CC568B5FBF3F5D6
:101C2000056130BD0010024000127A0000093D003D
:101C3000180000202800002010B500F031F80F49EE
:101C400008700846007810B900F00DFD14E00B484C
:101C5000007801280BD009480078022807D00748EF
:101C60000078032803D005480078042804D1012017
:101C70000349086000F0F7FC10BD00002C0D0020A7
:101C8000340D002010B5FFF767FEFFF7EDFEFFF7FC
:101C90007FFDFFF783FD4120FFF7C4F910BD000071
:101CA00010B535495220FFF7B5FE002861D1334801
:101CB000FFF781FD00285AD10024304800784328DE
:101CC0000DD12E484078282809D12C488078ED285D
:101CD00005D12A48C078102801D101244AE02748BC
:101CE00000785A280DD125484078FD2809D123488D
:101CF00080788A2805D12148C078102801D1022493
:101D000038E01E4800781E490978884213D11B48E4
:101D100040781B49497888420DD118488078184985
:101D20008978884207D11548C0781549C978884212
:101D300001D103241EE01148007812490978884235
:101D400013D10E4840780F49497888420DD10B488D
:101D500080780C498978884207D10848C0780949B9
:101D6000C978884201D1042404E0002402E005245B
:101D700000E00624204610BD300000202C0000208A
:101D80003C000020400000202DE9F04106460025DF
:101D900080212448FEF7EAFF7E2000EA460040F05A
:101DA0008007082417E001211F48FEF7DFFF07F036
:101DB000800020B102211C48FEF7DAFF03E0022177
:101DC0001948FEF7D3FF01211748FEF7D1FF780627
:101DD000070E601EC4B2002CE5DC082414E00121CB
:101DE0001148FEF7C3FF6806050E01210E48FEF7F5
:101DF000BFFF4FF400510C48FEF7AFFF012801D19F
:101E000045F00105601EC4B2002CE8DC80210548C5
:101E1000FEF7AEFF01210448FEF7AAFF2846BDE801
:101E2000F081000000080140000C014010B52E4870
:101E3000FEF7F8FE2D4908702B48801CFEF7F2FED5
:101E40002A4948702848001DFEF7ECFE2749887093
:101E50002548801DFEF7E6FE2449C8702448FEF799
:101E6000E1FE244908702248801CFEF7DBFE214970
:101E700048701F48001DFEF7D5FE1E4988701C489B
:101E8000801DFEF7CFFE1B49C8701B48FEF7CAFE37
:101E90001A4908701848801CFEF7C4FE174948709C
:101EA0001548001DFEF7BEFE144988701248801DBB
:101EB000FEF7B8FE1149C8701148FEF7B3FE11498C
:101EC00008700F48801CFEF7ADFE0E4948700C48A4
:101ED000001DFEF7A7FE0B4988700948801DFEF71C
:101EE000A1FE0849C87010BD007000083400002031
:101EF0000074000838000020007800083C00002032
:101F0000007C0008400000207047000010B50B491D
:101F10000968080EFFF7B4F808480068C0F30740E6
:101F2000FFF7AEF805480088C0F30720FFF7A8F8D0
:101F300002490878FFF7A4F810BD00004400002013
:101F400010B504462012FFF79BF8E0B2FFF798F8AF
:101F500010BD10B504462046FFF792F810BD10B52D
:101F6000EF20FFF78DF80120FFF78AF810BD10B5BC
:101F70000446C4F30720FFF783F8E0B2FFF780F8C8
:101F800010BD10B504462046FFF77AF810BD10B515
:101F9000FFF7AAFB10BD00002DE9F04104460A49F5
:101FA000204600F0E5FE8046084900F0C3FF0746E2
:101FB000074900F07BFE064600F09CFF85B22846EC
:101FC000FFF7DEFBBDE8F081000034430000FA4477
:101FD0000000FA4370B505460C4600262846FFF778
:101FE000D3FE064646EA0401284600F055FB70BDC4
:101FF00010B500F001F810BD0CB500200190009064
:102000003348006840F480303149086000BF3048F0
:10201000006800F4003000900198401C0190009886
:1020200018B90198B0F5A06FF1D12948006800F403
:10203000003010B10120009001E0002000900098D5
:10204000012843D12348006840F01000214908606E
:102050000846006820F0030008600846006840F069
:10206000020008601A4840681949486008464068FC
:1020700048600846406840F4806048600846406810
:1020800020F47C1048600846406840F4E81048603E
:102090000846006840F08070086000BF0C48006887
:1020A00000F000700028F9D00948406820F00300D3
:1020B000074948600846406840F00200486000BF99
:1020C0000348406800F00C000828F9D10CBD00005E
:1020D00000100240002002407047042808D14FF051
:1020E000E021096941F004014FF0E022116107E0AD
:1020F0004FF0E021096921F004014FF0E022116165
:102100007047704710B51348006840F0010011494E
:10211000086008464068104908400E494860084673
:1021200000680E4908400B4908600846006820F422
:10213000802008600846406820F4FE0048604FF4A4
:102140001F008860FFF754FF4FF0006004490860EB
:1021500010BD0000001002400000FFF8FFFFF6FE77
:1021600008ED00E010B50121094800F054F868B10D
:102170000848008840F400400649088001210448CE
:1021800000F03AF80021024800F039F810BD0000D4
:10219000000400402A0D00207FB505460C460121B1
:1021A0000220FFF79FFCADF80450ADF8004000207E
:1021B000ADF80600ADF8020069460E4800F0ACF834
:1021C000012211460B4800F037F80121094800F0C0
:1021D00016F81D208DF80C0000208DF80D0002204F
:1021E0008DF80E0001208DF80F0003A8FEF75AFFAE
:1021F0007FBD000000040040CA430282704721B145
:10220000028842F00102028004E002884FF6FE7369
:102210001A400280704730B5024600200023002497
:10222000158A05EA0103958905EA010413B10CB189
:10223000012000E0002030BD1AB183890B43838167
:1022400002E083898B438381704701894FF6F872DE
:10225000114001817047000070B500240022002366
:10226000058C4FF6EF7635400584028C8388048B0D
:1022700048F6FF752C404FF6FF452C400D884FF671
:10228000FF7606EA05252C434FF6DF752A400D89B7
:1022900006EA05152A434D8806EA05152A43154D19
:1022A000A84202D0144DA8421DD14FF67F752A4096
:1022B0004D894FF6FF7606EA05152A434FF6BF759E
:1022C0002A408D8806EA05152A434FF6FF352B4034
:1022D0004FF2FF752B408D8906EA85052B43CD898A
:1022E00006EA85052B4383800483CD880587028415
:1022F00070BD0000002C014000340140002101802D
:1023000041808180C180018141818181C18170478B
:102310000187704781847047002202881D4B9842D4
:102320000ED01D4B98420BD0B0F1804F08D01B4B04
:10233000984205D01A4B984202D01A4B984204D1C9
:102340004FF68F731A404B881A43174B984207D0A9
:10235000164B984204D04FF6FF431A40CB881A43DD
:1023600002808B8883850B8803850A4B98420BD0AB
:10237000094B984208D00E4B984205D00D4B98421D
:1023800002D00D4B984201D10B7A03860123838240
:1023900070470000002C0140003401400004004060
:1023A00000080040000C00400010004000140040F5
:1023B00000400140004401400048014010B540F297
:1023C0002551164800F08CF8F8B1144800F044F993
:1023D000C4B21348008800F40040B0B91048008827
:1023E000B0F5C87F12DA00210E48FFF793FF0C48C2
:1023F000008818B901210B48FFF701FF0849088838
:10240000411C074A118008490C5405E00448008823
:1024100040F400400249088010BD00000048004020
:102420002A0D002000040040380D002021B18289CF
:1024300042F40052828104E082894DF6FF731A4013
:102440008281704710B504462048844209D1012199
:102450008803FFF777FB00214FF48040FFF772FB02
:1024600032E01B48844209D101214804FFF74AFBAE
:1024700000214FF40030FFF745FB25E0154884426A
:1024800009D101218804FFF73DFB00214FF4802092
:10249000FFF738FB18E01048844209D10121C80435
:1024A000FFF730FB00214FF40020FFF72BFB0BE080
:1024B0000A48844208D101210805FFF723FB0021C7
:1024C0004FF48010FFF71EFB10BD000000380140E4
:1024D0000044004000480040004C004000500040D4
:1024E00070B50246002400230025002040F66A163D
:1024F000B14200D100BFC1F3421501F01F03012614
:1025000006FA03F3012D02D19689334006E0022D2D
:1025100002D1168A334001E0968A33400C1201261C
:1025200006FA04F41688344013B10CB1012000E01F
:10253000002070BDF0B503460024002600250020D1
:1025400040F66A17B94200D100BF1846C1F34214E1
:1025500001F01F06012707FA06F5012C01D10C3006
:1025600004E0022C01D1103000E014301AB10768E9
:102570002F43076002E00768AF430760F0BD00002B
:102580002DE9F04786B005460E460024A24600BF5E
:10259000A1460027B08900B100BF2F462C8A4CF617
:1025A000FF700440F08804432C82AC894EF6F3108F
:1025B0000440B08831890843718908430443AC81E1
:1025C000AC8A4FF6FF400440B0890443AC8201A8B6
:1025D000FFF7C8FA1F48874202D1DDF810A001E0DA
:1025E000DDF80CA0A88900F4004040B10AEBCA0055
:1025F00000EB0A1031684900B0FBF1F807E00AEB84
:10260000CA0000EB0A1031688900B0FBF1F86420C1
:10261000B8FBF0F004012009642101FB1089A889AE
:1026200000F4004040B1322000EBC900B0FBF1F0F3
:1026300000F00700044308E0322000EB0910642199
:10264000B0FBF1F000F00F0004432C8106B0BDE8B0
:10265000F08700000038014001468888C0F3080078
:10266000704700BFFEE738B515E069465220FFF716
:10267000D1F9044664B169465220FFF7CBF904460C
:1026800034B169465220FFF7C5F9044604B138BD9C
:102690000A2000F0B6F8E8E72DE9F04106460D46BD
:1026A00001212648FEF762FB80212548FEF75EFBEC
:1026B0007E2000EA4607082417E007F0800020B1DA
:1026C00002211E48FEF754FB03E002211B48FEF7DF
:1026D0004DFB01211948FEF74BFB7806070E01213F
:1026E0001648FEF743FB601EC4B2002CE5DC08244C
:1026F00017E005F0800020B102211048FEF738FBFA
:1027000003E002210D48FEF731FB01210B48FEF7E3
:102710002FFB6806050E01210848FEF727FB601E07
:10272000C4B2002CE5DC80210548FEF721FB012125
:102730000248FEF71DFBBDE8F0810000000C0140DF
:102740000008014070B50446002520E004F0800038
:1027500018B101200F49086002E000200D4908600F
:10276000FEF70AFB01200B49091F0860FEF704FB76
:1027700000200949C1F8A001072D02D10120054917
:1027800008606006040EFEF7F7FA681CC5B2082D53
:10279000DCDB70BDA48121420080214210B50446DB
:1027A000FEF712FB7820FFF7CDFFFEF739FB002084
:1027B000FFF7C8FFFEF734FB2046FFF7C3FFFEF725
:1027C0002FFBFEF71BFB10BD10B50446FEF7FCFA0D
:1027D0007820FFF7B7FFFEF723FB4020FFF7B2FF9B
:1027E000FEF71EFB2046FFF7ADFFFEF719FBFEF7D5
:1027F00005FB10BD30380A2801D2012070470020A7
:102800007047002107E0002200E0521C4EF66023D2
:102810009A42FAD3491C8142F5D3704710B56FF044
:102820000400FFF75AFC0A4800680A49B0FBF1F0BF
:10283000094908700846007800EB4001C1EBC01060
:102840004FF6FF7101EAC0000449088010BD000086
:102850000000002000127A00140000201600002062
:102860000146114A12884A434FF0E0235A61002280
:102870009A611A46126942F001021A6100BF4FF0D4
:10288000E022106900F001021AB100F48032002A3F
:10289000F5D04FF0E022126922F001024FF0E02360
:1028A0001A6100229A61704716000020FEF7BEF9F7
:1028B0004E4908604FF4A060FEF72CFCFFF7AEFF16
:1028C0004FF4614000F08AF9FEF712FBFEF75EF864
:1028D00040F2DC50FFF7C4FFFEF748FCFEF724FC93
:1028E00043A200211020FEF7ADFC45A202211020DA
:1028F000FEF7A8FC46A204211020FEF7A3FC48A284
:1029000006211020FEF79EFCFFF741FBFFF7BAF906
:102910000020FFF741FBFFF789FA65E00020FEF792
:1029200021FB434908704348006801280BD1084641
:102930000078012807D1002008703E490860FEF7A2
:10294000F3FBFDF74FFE3B48006801280CD13848E7
:102950000078032808D100203549087035490860FF
:10296000FEF7E2FBFEF77AF83148007805280DD132
:1029700000202F4908702F490860FEF7D5FB2EA2D2
:1029800002212020FEF75EFC00F070F82D48007850
:10299000012801D1FFF750F92B48006810B12B48EE
:1029A000006808BB2A48FFF7F7FAFEF73DF840F247
:1029B000DC50FFF755FF40F2DC50FFF751FF40F2CB
:1029C000DC50FFF74DFF40F2DC50FFF749FF40F2CB
:1029D000DC50FFF745FF40F2DC50FFF741FF0020DD
:1029E000FFF7DAFAFEF716F898E70000240D00204A
:1029F000D6B8CEC6C9EDB7DDC8CFD6A4000000005A
:102A00004B31BCFCCCEDBCD3D6B8CEC60000000028
:102A10004B33BCFCC9BEB3FDD6B8CEC60000000027
:102A20004B35BCFCD1E9D6A4D6B8CEC60000000018
:102A3000280D0020340D0020C7EBB0B4CAD6D6B89C
:102A400000000000300D00203C8121422001214285
:102A50000000B44210B50246012000E050430B1EB6
:102A6000A1F10104E1B2F9D110BD000010B586B0AA
:102A700054E00020FEF776FA37490870FEF764FD4F
:102A80000446002C4AD10120FEF73BFD0446002CF1
:102A90003DD105AB632200210120FEF772FD044603
:102AA000002C2BD12DA20221FEF7CCFBBDF8163055
:102AB000BDF814202EA16846FDF7AEFB6A4604213E
:102AC0000020FEF7BFFB2E48FFF766FAFDF7ACFFCC
:102AD00040F2DC50FFF7C4FE40F2DC50FFF7C0FECE
:102AE00040F2DC50FFF7BCFE0020FFF755FAFDF77F
:102AF00091FF4FF4FA70FFF7B3FE13E021A2022119
:102B00002020FEF79FFB40F2DC50FFF7A9FEFEF706
:102B10000BFB1FA202212020FEF794FB0E48007839
:102B20000128A6D100BFFEF7FFFA1CA2002108462B
:102B3000FEF788FB1DA202211020FEF783FB1FA2D7
:102B400004211020FEF77EFB20A206211020FEF7B4
:102B500079FB06B010BD0000280D00202020D6B85B
:102B6000CEC6D1E9D6A4B3C9B9A620200000000082
:102B70002049443A256420B5C3B7D63A25642000DD
:102B80000000B442D1E9D6A4CAA7B0DC000000001E
:102B9000C7EBB0B4CAD6D6B800000000D6B8CEC6CF
:102BA000C9EDB7DDC8CFD6A4000000004B31BCFC96
:102BB000CCEDBCD3D6B8CEC6000000004B33BCFC75
:102BC000C9BEB3FDD6B8CEC6000000004B35BCFC74
:102BD000D1E9D6A4D6B8CEC60000000010B586B0A4
:102BE000044601210820FEF79DFF01218804FEF71D
:102BF00079FF2A48FFF726FC4FF48060ADF81000FB
:102C000003208DF8120018208DF8130004A9244821
:102C1000FEF718F84FF40060ADF8100004208DF8AE
:102C2000130004A91E48FEF70DF800940020ADF82B
:102C30000400ADF80600ADF80800ADF80C000C205B
:102C4000ADF80A0069461548FFF79AFC01211348C0
:102C5000FFF7ECFB012240F225511048FFF76AFC18
:102C600027208DF8140002208DF8150003208DF820
:102C7000160001208DF8170005A8FEF713FA41F69B
:102C80001F416320FFF788FA0020064908800021D1
:102C90000548FFF7B4FA06B010BD00000048004038
:102CA000000C01402A0D00200004004090EA010FB2
:102CB00048BF81F0004100F11082421A3CBF801AE7
:102CC00089184FEAD0524FF07F4C1CEA410FA2EB1B
:102CD000D15318BF9CEA026F00F03B804FF0004CCC
:102CE0004CEA00204CEA012121FA03FC10EB0C0C09
:102CF0001ED202F1FF325FEA1C2040EBC25038BF07
:102D000070471CF07F0F4FEA400C18BFBCF17F4F9B
:102D100038BF7047C3F12003994008BF20F001007D
:102D2000BCF17F4F38BF7047A0F1C04000F0C9B977
:102D30004FEA3C00000A40EBC25028BF1CF0FF0FD6
:102D40004FEA400CE6D018BFBCF17F4F38BF704748
:102D5000EAE79CEA026F05D010EA5C0F08BF00F0BA
:102D60000040704710B500F066F900BF64FBBE3E3E
:102D70004FF47F0C1CEAD0121EBF1CEAD11392EA5A
:102D80000C0F93EA0C0F00F0858090EA010F48BF0A
:102D900042F4807240F4000C41F400002CF07F41BA
:102DA00020F07F4000B58142A2EB03020FF2081C25
:102DB000ACEB504EC0F100009EF800E04FEA4E0E22
:102DC00000FB0EFC38BF49004FEA2C1C02F5FA024A
:102DD0000CFB0EF34FEACE1E4FEA112C4FEAC12135
:102DE0000EEB635E42EB22420EFB0CFC4FEA1C53DF
:102DF00000FB03114FEA112C4FEA01310EFB0CFCD2
:102E00004FEADC4C00FB0C11C14228BF09184CEB07
:102E100003335DF804EB10EB410143EBC250B2F514
:102E20007C0F38BF704729D512F0F00F1CBF00F19E
:102E3000C04000F00040704700818283848586870F
:102E400088898B8C8D8E8F919293959697999A9C69
:102E50009D9FA0A2A3A5A7A8AAACAEB0B2B3B5B7D8
:102E6000B9BCBEC0C2C5C7C9CCCED1D4D7D9DCDFAE
:102E7000E2E6E9ECF0F3F7FAFE0000004FEA400C5E
:102E80000CF1807CBCF17E4F28BF7047B0F1C04090
:102E900000F017B990EA010F0CEAD11348BF42F4D1
:102EA0008072624538BF634507D213F47F0F16D096
:102EB00080EA010000F00040704710B500F0BBF858
:102EC000097EFC3E00F005B880EA010000F00040F9
:102ED000704780EA010000F0004000F0F2B812F400
:102EE0007F0F04BF0248704780EA010000F0E9B894
:102EF0000000C07FC10DD1F19E0206DB4FEA002326
:102F000043F0004323FA02F07047004207D54FEA2E
:102F10004001B1F1FE4F02D24FF00000704710B5F2
:102F200000F089F849922480002070476FEA200061
:102F3000704700004FF47F0C1CEAD0121EBF1CEA41
:102F4000D11392EA0C0F93EA0C0F00F0478090EA3D
:102F5000010F48BF42F480724FF0004C4CEA002051
:102F60004CEA012102EB0302A0FB0113A2F50002CF
:102F7000002918BF43F001035B0028BF4FEA330369
:102F800042EB22425FEA132C4CEBC2502EBFBCEB4B
:102F9000436FB2F57C0F70474FEA036CBCF1004FF2
:102FA00008BF20F00100B2F57C0F38BF70470BD589
:102FB00082F0FF0212F5803FC8BF704700F1C040A9
:102FC000D8BF00F00040704700F5000C5FEA4C0CE1
:102FD00048BF7047B0F1C04000F073B890EA010FED
:102FE0000CEAD11348BF42F48072624538BF634592
:102FF00004D280EA010000F00040704710B500F0F4
:103000001AF800BF8900013E00F007B800F009B8C7
:103010005FEA410C5FEA1C6C08D080EA010000F016
:1030200050B85FEA400C5FEA1C6CF6D14FF00040EC
:10303000A0F5800070470EF1020E2EF0030E5EF830
:10304000044B244204D44FEA4102B2F17F4F11D81D
:103050004FEA4003B3F17F4F0CD80ED14FEAD07C3A
:10306000B2F17F4F0CEB4C0C0CF1020C08BF4CEB97
:10307000D17C04E04FF0080C01E04FEAD17C0CEB6E
:103080004C0324FA03F404F00704B4F1040C06D250
:103090000EEB840CBDE810404CF0010C6047DFE8FB
:1030A0000CF0070802024FF00040A0F5800010BDB0
:1030B0000846420018BFD2F1807288BF00F000407D
:1030C00010BDFF2141EAD050C005704790EA010FC2
:1030D00048BF81F000413FF5F0AD421A04D882F0BC
:1030E0000042A0EB020011444FEAD0524FF07F4C57
:1030F0001CEA410FA2EBD15318BF9CEA026F4AD0E1
:103100004FF0004C4CEA00204CEA012121FA03FC6C
:10311000B0EB0C0C0FD412F0FE0F36D05FEA4C006F
:103120001DD5001240EBC25038BF70471CF03F0F56
:1031300018BF70470BE0A2F101025FEA1C2040EBD0
:10314000C25038BF70471CF07F0F18BF7047C3F1E3
:103150002003994014BF401E20F0010070478008F2
:103160004FEA122308BF7047B0FA80FCA2EB0C02B2
:10317000CCF1280C60FA0CF093EA122F04BF00EB9C
:10318000C25070474FEAC3707047130A5FEADC1001
:1031900008BF7047F6E79CEA026F04D010EA5C0FA4
:1031A00008BF0020704710B5FFF745FF40DFF63E2F
:1031B00081F000407047040000080000000000009B
:1031C0000002000100001000E831000800000020AB
:1031D000380D000028010008243B0008380D0020AD
:1031E000800900008C010008500600A24A0400017A
:1031F000A009010203040607080910611460050212
:10320000040608280211FF0151320211000152F890
:10321000083233061004100C0603711D200440C050
:103220007803200500043F0403100800007088FCA8
:1032300008302E100E1820FF211E0000F008F000AC
:10324000E0183E4005211C031E111388700FE00C8E
:103250001E2123241927211010160E702005E018B6
:1032600004026A300B071820400000020418E069CD
:10327000200420180770300E4080F080404000028B
:1032800002010F01022832F0EC100401011F047149
:1032900045C00480B0705642010171B98330302CB2
:1032A0003008601804006018063E1006E010080898
:1032B000107210070F102020100FF046100010069B
:1032C00020203F20202D3004700808C2100630282E
:1032D000242221E910063008888848082006182092
:1032E000202011CC33C020321407070424243F24AB
:1032F0003E112016087B431921202405E010888800
:1033000010430F11103406380808C8389B323F8D1F
:103310004370886080071C222121221C9010060027
:1033200031222211901161C2C0C26280C6510810C0
:1033300004402010701407010204081020303101ED
:10334000430004011300001522403211251304022A
:10335000F2137048D135431330360F1406C030C80D
:1033600028E80020080718272423140B6F22387E32
:10337000200D203C23020227382008F88888FF25EA
:103380000E21D017C03010270838AD15303406088C
:103390000008F808403120154021303004E80810BA
:1033A00030A004232018102300035E21403638ED9E
:1033B000200520221E024011A41009F808203F21F8
:1033C00001012125220852958051112006C08080DC
:1033D000807F0E2007F888C0281808704005012655
:1033E0003820405200A0132030201004F800F85478
:1033F00017203F60214F4004F830C0601220E436AF
:103400003F5F21B025EF41B021D033F00080830130
:103410000020300718242438504FC0250131C03413
:10342000040C3020B021C1373820B032189F421828
:103430008231A041D023001F9034081F00087888F3
:103440000000F1100407380E60119B12F8B5401D02
:1034500000033C0700073C030008186880806818D8
:103460000820302C03032C30200838C82F5150215D
:103470008F213F18042038265129494C0400FE02B0
:103480000803267FE85804000C301F1805000106C9
:10349000382A111D3EFEA9032740403010040000C9
:1034A0000412FE04E503528001F2001D311619C01A
:1034B0001806242222223F0032000F5B003FC03159
:1034C0002119D01A0ED04320114B4388F810221036
:1034D000B35140121F3F2322131E1AF0428618D008
:1034E00041772408006B94949493600B310F1580FE
:1034F00041F3BC0480989880035200125901153B97
:1035000031311406203F24022D8F2930ADB00361E4
:10351000D7214B2103112BC16071A045A031202D73
:10352000400493FFA1E04280E033A0FF4C315019EA
:10353000A13E20300551C0133324012219E046E09A
:103540002125F252004D428060151031EC25681C97
:1035500005010E300872042170256318040F300C29
:103560004F320F2C41A16007312E0E312000303C2C
:103570000580818E70A20455A73C050021302C8067
:1035800004215F4A7C012B003F011DE0056DE80529
:1035900025EF340402027CB04F404060041E023626
:1035A000054D60054DCF0518141010FF1090003F19
:1035B00048484444444270000444827F9723FF49B2
:1035C0000111411C052030AC6312054C04F8090EB2
:1035D0008803140E226722129280402116081621B9
:1035E00040081C0E1010D0FF9014E4AFA4A4A4AFA8
:1035F000E45F0413040377240A894B2A1A0E1A2A5B
:103600004B88281C0520FF2020530337FF089A18F9
:10361000151030100F884821110D030D1121418123
:10362000001060028CC21AF2A522F8B1240D040425
:103630007E018047300F10270047E02007404042BE
:10364000CC0090013806FF101116107A14071028CC
:10365000603F101041280C40F0002424A4FE2322D7
:10366000003E5E17223EFF10070601FF010640BD27
:10367000127FC31E411F031EFCFB041C08141556B9
:1036800094543414A0061640641D2C061C04418179
:103690007F320613050310100EEF242480E49C10E3
:1036A0005454FF547C101C400E7F2151261827448F
:1036B00045455F454544A0300B109252321E3252B0
:1036C000921210A0440C00211840807F0830040999
:1036D00031401E10400542F8E0128061111D1D8E20
:1036E0000311FA1107400680FE8282FE0531E115C2
:1036F00086300520BF403F23224F281C0CFE225A53
:103700008620102824E324287206157A200604084F
:1037100027110DA012055F20040002FA401C08408A
:1037200020504C434C501007441008184884443F24
:10373000404458414E60584740204C070004C404A0
:1037400004FCE00525201F48400C0410057F414182
:103750004120211F1006445454547F042A441F580A
:103760000C7F201000FF15151555957F0020109037
:1037700020988888E98E8888A89800024281B63C03
:1037800007844B28102847E90329D81724FC5E1525
:10379000673D4F043006020242827F082D80072CCD
:1037A000040202C263042282014E02670451043DF6
:1037B00078062C0F201808EAACA8A8AFA8A8ACEA95
:1037C00008280908223E423807FF020212221E9FE3
:1037D00013F2920122FE0512F2502C040404FFABF6
:1037E00006140707040444847FB0C280010D109EB4
:1037F000082405020C80607533C8085F1B02024074
:103800001D2C083C0506010618E9061C040848881A
:103810006107370090A81940100620100C030429F6
:103820003E433F062D3F0531A85EFF370735B911EE
:1038300028323FC11C05780002E2F70452FE041250
:10384000E2E12AFF6312160443024C423D110629AD
:10385000E01C05090AC8084C082C061F0010201F90
:1038600022031C04182641DB053D100642087E3E5B
:10387000F000031F1F0831083C050E014080920331
:10388000480440301E44319E2C05008181411D03B7
:103890004E011F032E81DE051808FA02FE4020D8D3
:1038A000176611983D1C037E678103297081403E95
:1038B0001030032101327F0615803DA0035C0A1001
:1038C00000FC24E4242223E2A003100783601F806D
:1038D0004126A015201C04020CC0A408200448485E
:1038E00048C2168ACF227F982C091E925E20173874
:1038F00046F11D092FF8075F033EE25F032DF20436
:10390000140DFF2011090503FF0305091120B0283C
:103910000584E41C07231C04A4642460031D5308CD
:103920008BFF00221D0D06538292012EFE3C054C9A
:103930000E404022241048807F0408182422AF043F
:103940001DAA068C05E21CE000BE082E0C19081DFD
:103950005D072D60042009001088C43300BEAA0151
:1039600022BEAF3160530A126221301C0490888657
:1039700020054F838CD90825FD5707005D1D1A03CC
:103980001C0F84E45C44C42010E82724E4342CE0B9
:10399000FF0414057F10103FA65C0709093F498901
:1039A0007F40039D35051D4605239048432D7F0A22
:1039B0005E8060031C04FC24A4FF063FA362880A07
:1039C0004C0D1F20584750484542454850407F07FE
:1039D0005C06F2121212F268072DF90316270F3E49
:1039E00027FF034DE0049D80033D4004AD80031C90
:1039F000080C442414040506A40424052444140CCF
:103A0000C11DB8032E41BD034E41CE0526FC5B3FD0
:103A10003DA687033DC0041310136F12FF731A12E3
:103A2000100D1E000421411C0454565501041F545E
:103A3000FC1B0A1D10043C094223222212120A46D2
:103A4000E80545E0340B8040B08E80808798608028
:103A5000E03DC5043E00A304DCC400D6B8CEC6C415
:103A6000A3BFE9B2E2CAD4B3CCD0F2BCFCCCEDBC6B
:103A7000D3C9BEB3FDD1E9D6A4C7EBB0B4CAD6D57D
:103A8000FDB3A3D4D9D2BBB4CEB6D4B1C8C1BDB3F3
:103A9000C9B9A6CAA7B0DCC9FAB0E5BCF5B1A3B4F0
:103AA000E6C2BCC8EBB5C3B7D6C8B7C8CFB7B5BBBD
:103AB000D8C7E5BFD5BFE2D6A4C9EDB7DD00202148
:103AC00022232425262728292A2B2C2D2E2F30315E
:103AD00032333435363738393A3B3C3D3E3F40414E
:103AE00042434445464748494A4B4C4D4E4F50513E
:103AF00052535455565758595A5B5C5D5E5F60612E
:103B000062636465666768696A6B6C6D6E6F70711D
:103B100072737475767778797A7B7C7D7E070C5D1D
:043B2000E20C0000B3
:04000005080000ED02
:00000001FF
