:020000040800F2
:1000000000060020AD010008F7230008BD2100080C
:10001000F52300087D070008252A000800000000DD
:10002000000000000000000000000000FB230008AA
:10003000B509000800000000F9230008FD230008AE
:10004000C7010008C7010008C7010008C701000870
:10005000C7010008C7010008C7010008C701000860
:10006000C7010008C7010008C7010008C701000850
:10007000C7010008C7010008C7010008C701000840
:1000800081070008C7010008C70100080000000040
:10009000000000000000000000000000B709000898
:1000A000C7010008C7010008C7010008C701000810
:1000B000C7010008C7010008C7010008C701000800
:1000C000C7010008C7010008C7010008C7010008F0
:1000D000C7010008C7010008DD2900080000000072
:1000E000C7010008C7010008C701000800000000A0
:1000F000000000000000000000000000C701000830
:1001000000000000C7010008C7010008C70100087F
:1001100000000000000000000000000000000000DF
:10012000C7010008C7010008C7010008C70100088F
:10013000C7010008000000000000000000000000EF
:10014000000000000000000000000000C7010008DF
:10015000C7010008C7010008C7010008C70100085F
:10016000C7010008C70100080000000000000000EF
:10017000000000000000000000000000000000007F
:1001800000000000C701000800000000000000009F
:10019000C7010008C7010008DFF80CD000F048FADA
:1001A00000480047752F00080006002006488047D9
:1001B00006480047FEE7FEE7FEE7FEE7FEE7FEE74C
:1001C000FEE7FEE7FEE7FEE791240008990100083C
:1001D0002DE9F05F0546002092469B46884606467C
:1001E000814640241BE0284641464746224600F00F
:1001F0007AF953465A46C01A914110D3114618460F
:10020000224600F061F92D1A67EB01084F4622469D
:100210000120002100F058F917EB00094E41201E83
:10022000A4F10104DFDC484631462A464346BDE8D6
:10023000F09FD2B201E000F8012B491EFBD27047BB
:100240000022F6E710B513460A4604461946FFF7A2
:10025000F0FF204610BD2DE9FE4F81EA030404F0B3
:10026000004421F0004100944FF0000B23F00043C4
:1002700050EA01045ED052EA03045BD0C3F30A548F
:10028000C1F30A552C44A4F2F3340194A0FB0254A8
:10029000C1F3130141F48011C3F3130343F480133A
:1002A00001FB024400FB034E840A970A44EA81548E
:1002B00047EA8357A4FB076802958D0A05FB07856B
:1002C0004FEA932C04FB0C542705029D4FEA065875
:1002D00047EA1637B5EB08056EEB070C870E920E52
:1002E00047EA811742EA8312A7FB0201B6EB0B0132
:1002F00064EB00042B0D43EA0C335E1844EB1C50F6
:10030000DA465146E7FB0201C5F313044FEA0B330B
:1003100043EA14534FEA0432019C43EA0603A4F172
:100320000C040294009CCDE900B400F032F903B053
:10033000BDE8F08F00200146F9E72DE9F04D81EA94
:10034000030404F0004B21F0004514464FF0000A6E
:1003500023F0004150EA050220D054EA01021DD0EA
:10036000C5F30A570246C5F31303C1F31300C1F3E3
:100370000A5640F4801543F48013A7EB0608101BBF
:10038000D64608F2FD3873EB050002D308F10108E8
:1003900001E092185B41B8F1000F03DA002001463A
:1003A000BDE8F08D00204FF48011064684460EE033
:1003B000171B73EB050705D3121B63EB05030643FD
:1003C0004CEA010C49084FEA300092185B4150EAB0
:1003D0000107EDD152EA030012D082EA040083EA59
:1003E0000501084305D0101BAB4106D201220023B2
:1003F00006E000224FF0004302E06FF001025310CC
:100400001AEB06004CEB085110EB0A0041EB0B0114
:10041000BDE8F04D00F0AEB80EB540F233410291A8
:100420000021CDE900110A460B4600F0B2F803B0F6
:1004300000BDC1F30A5210B5C1F3130140F2FF33FE
:1004400041F480119A4201DA002010BD40F233439A
:100450009A42A2F2334203DC524200F044F810BD4B
:10046000904010BD01F0004330B421F0004150EA4B
:10047000010206D00A0DA2F56072C1F31301002A31
:1004800002DC30BC00207047440F44EAC104C100C4
:10049000E01830BC00EBC25000F035B830B50B4668
:1004A000014600202022012409E021FA02F59D42A4
:1004B00005D303FA02F5491B04FA02F52844151E78
:1004C000A2F10102F1DC30BD202A04DB203A00FA5F
:1004D00002F1002070479140C2F1200320FA03F39B
:1004E000194390407047202A04DB203A21FA02F099
:1004F0000021704721FA02F3D040C2F1200291405E
:100500000843194670470029A8BF7047401C49009E
:1005100008BF20F00100704710B4B0FA80FC00FA68
:100520000CF050EA010404BF10BC704749B1CCF193
:10053000200421FA04F411FA0CF118BF012121431F
:100540000843A3EB0C01CB1D4FEA00614FEA1020DA
:1005500042BF002010BC704700EBC350104400297C
:10056000A4BF10BC7047401C490008BF20F0010028
:1005700010BC704710B5141E73F1000408DA401C5B
:1005800041F1000192185B411A4301D120F00100B2
:1005900010BD2DE9F04D92469B4611B1B1FA81F2A2
:1005A00002E0B0FA80F220329046FFF78DFF044659
:1005B0000F4640EA0A0041EA0B0153465A460843F7
:1005C00013D0114653EA010019D0C8F14002504639
:1005D000FFF789FF05460E46504659464246FFF74B
:1005E00073FF084305D0012004E020463946BDE8EA
:1005F000F08D0020054346EAE0762C4337430A9805
:100600006305E40AA0EB08000022FD0A44EA47540F
:100610000A3002D500200146E9E7010510196941B9
:10062000DDE9084500196941BDE8F04DA2E7000089
:10063000064C074D06E0E06840F0010394E807002F
:1006400098471034AC42F6D3FFF7AAFD9431000866
:10065000B4310008464910B54A6822F440324A6075
:100660004A6843681A434A6001684A6822F4807203
:100670004A6001684A68036942EA03224A600168E5
:100680004A6822F040724A6001684A6883681A43E7
:100690004A6001688A6822F400628A6001688A6898
:1006A000C3681A438A60816A6FF07062D142016840
:1006B0008A6822F070628A6001688A680CD0836A56
:1006C0001A438A6001688A6822F040528A60016891
:1006D0008A68C36A1A4301E022F040528A600168C6
:1006E0008A6822F002028A6001688A68037E42EA10
:1006F00043028A6090F82010002901684A680FD0F0
:1007000042F400624A6001684A6822F460424A602A
:1007100001684A68174C436A04EB43331A4301E00B
:1007200022F400624A600168CA6A22F47002CA6256
:100730000168CA6A838B104C04EB03531A43CA62E4
:1007400001688A6822F400728A6001688A6890F8F9
:10075000303042EA43228A6001688A6822F480626B
:100760008A6001688A68406942EA8020886010BD1A
:100770000023014000E0FFFF0000F0FFFEE7000063
:10078000014800F047BB00009C01002001681823CD
:10079000CAB2103AB2FBF3F2054B6FF30901032A18
:1007A0009B5CC36500D9091D816508467047000040
:1007B0007231000810B5014600208B698A6A4FF03B
:1007C000C07453B1B3F5005F15D072B1012A0CD0DB
:1007D000022A0AD0032A09D104E01AB1012A06D05C
:1007E000022A03D1C96AC90100D5012010BDC96A16
:1007F000A142FAD010BD002AF7D0012AF2D0022A75
:10080000F3D0032AF3D010BD30B50468256825F471
:1008100080252560046863608368402B036803D0EB
:1008200099600068C26030BD9A600068C16030BDE8
:100830002DE9F041544C00262DED028B31462778EE
:10084000AA2F7CD00220225C401CC0B21144172881
:10085000F9D3C8B2E17D884271D1A078E178000473
:1008600000EB01202179A27901446079000400EBBA
:100870000220E2791044B1FBF0F0FFF7CDFD9FEDCF
:10088000438B53EC182BFFF7E6FCFFF7EBFD414DD4
:100890002861207A617A000400EB0120A17A227B92
:1008A0000844E17A090401EB0221627B11446422CD
:1008B0005043B0FBF1F0FFF7AFFD9FED371B53EC5A
:1008C000112BFFF73AFDFFF7CDFD6861F02F04D93A
:1008D0009FED330A85ED060A18E0A07BE17B00045A
:1008E00000EB0120217C4618607CA17C000400EB19
:1008F0000120E17C0844B6FBF0F0FFF78DFD53ECDE
:10090000182BFFF7A8FCFFF7ADFDA861207DA98893
:1009100000F08000884203D06978491C6970A88083
:100920006878617D000400EB0120A17D4418304609
:10093000FFF772FD53EC182BFFF78DFC00E01FE072
:1009400041EC100B53EC102B9FED160B51EC100BE0
:10095000FFF7F3FC9FED158B53EC182BFFF77BFC97
:10096000FFF767FD42F210714C43B4FBF0F0FFF764
:1009700053FD53EC182BFFF7E0FCFFF773FDE86124
:10098000BDEC028BBDE8F0816400002014AE47E1AD
:100990007A14FE3F000000200000000000005940D3
:1009A00000000000000000002A75B54100000000B2
:1009B0000088C3407047202000F002BC72B6FEE7FA
:1009C00078B50024009490F83C20012A19D0012227
:1009D00080F83C200A6807230568092A13D9EE68C5
:1009E0000A3A02EB420293409E43EE600B788A681B
:1009F0000A3B03EB43039A400368DD682A43DA604D
:100A000010E0022078BD2E6902EB420293409E4323
:100A10002E610B788A6803EB43039A4003681D69D3
:100A20002A431A614A681F23072A13D205686E6B8E
:100A3000521E02EB820293409E436E630A8893B279
:100A40000A79521E02EB820293400268556B2B43D7
:100A5000536327E005680D2A12D22E6BD21F02EBDA
:100A6000820293409E432E630B790A88DB1F92B269
:100A700003EB83039A4003681D6B2A431A6311E05A
:100A8000EE6A0D3A02EB820293409E43EE620B79CE
:100A90000A880D3B92B203EB83039A400368DD6A38
:100AA0002A43DA621B4B0568194A9D420AD10D6838
:100AB000122D07D1556825F400055560556845F499
:100AC0008005556005689D421DD1134D0B68AB42F2
:100AD00001D0112B17D1536823F48003536053685E
:100AE00043F4000353600968A9420CD10B490C4A36
:100AF0000968B1FBF2F101EB8101490000E0491EF8
:100B000000910029FBD180F83C40002078BD000016
:100B1000002301400020014012000010440000208A
:100B200040420F00006C70470068C06C704770B5A1
:100B300004004FF0000503D0206C002610B107E040
:100B4000012070BD204600F01DF8666484F83C600A
:100B5000206CC00610D4206C20F4885040F00200B5
:100B600020642046FFF776FD6664206C20F00200CA
:100B700040F00100206400E0012584F83C60284634
:100B800070BD000010B586B0044614216846FFF71A
:100B900057FB1149206888421CD110480021026887
:100BA00042F480720260006800F4807005900B4887
:100BB0001438026842F001020260006800F001008F
:100BC0000590012000900320CDE901016946044809
:100BD00000F002FB06B010BD002001404438024086
:100BE000000002402DE9F041044600680D4681688E
:100BF0004FF0000749050BD58068C00508D5206C6B
:100C000040F02000206484F83C700120BDE8F081B1
:100C100000F0E4FB064613E0681C11D025B100F09B
:100C2000DDFB801BA8420BD920680068800707D431
:100C3000206C40F00400206484F83C700320E5E759
:100C4000206800688007E7D521686FF0120008600F
:100C5000206C40F4007020642068816811F0405FCF
:100C600013D1217E89B9C16A11F4700F02D0806856
:100C700040050AD4206C20F480702064206CC004ED
:100C800003D4206C40F0010020640020BEE7000087
:100C900018B50021009190F83C20012A07D00122CC
:100CA00080F83C2002689368DB0702D011E0022044
:100CB00018BD936843F001039360244A244B1268E3
:100CC000B2FBF3F202EB420200E0521E0092002A55
:100CD000FBD102689368DB072ED0036C40F20164FD
:100CE000A34343F48073036453685B0505D5036C29
:100CF00023F4005343F480530364036CDB0404D5F2
:100D0000436C23F00603436400E0416480F83C1028
:100D100010496FF02203136049680068C90602D0C9
:100D20000D49884210D1816811F0405F0CD1816873
:100D300041F08041816007E0016C41F010010164E5
:100D4000416C41F001014164002018BD44000020C5
:100D500040420F0000230140002001402DE9F041F6
:100D60000446876D00F03AFB064694F835000025EE
:100D7000022806D08020606584F834500120BDE848
:100D8000F0812068016821F0160101602068416946
:100D900021F080014161206C08B9A06C20B120686D
:100DA000016821F0080101602068016821F001015B
:100DB00001600CE000F012FB801B052807D9202001
:100DC0006065032084F8350084F83450D7E7206844
:100DD0000068C007EED194F85C103F208840B860EE
:100DE000012084F8350084F834500020C7E790F8DB
:100DF0003510022903D0802141650120704705216B
:100E000080F835100068016821F0010101600020C0
:100E1000704700002DE9F84304464FF00009CDF873
:100E2000009063484FF41651A56D0068B0FBF1F7D0
:100E30002E6894F85C10082000FA01F131420FD0BE
:100E400021680A6852070BD50A6822F004020A607A
:100E500094F85C108840A860606D40F00100606507
:100E600094F85C104FF0010808FA01F0304208D005
:100E700021684969090604D5A860606D40F0020048
:100E8000606594F85C1004208840304208D02168E6
:100E90000968890704D5A860606D40F004006065AA
:100EA00094F85C1010208840304218D021680968FE
:100EB000090714D5A86020680168490304D50068B3
:100EC000000308D5A16C07E00168C90503D40168D7
:100ED00021F008010160216C09B12046884794F88F
:100EE0005C1020208840304231D021680968C90652
:100EF0002DD5A86094F8350005282068016806D033
:100F0000490347D5006800031DD4616C1CE021F043
:100F1000160101602068416921F080014161206C67
:100F200008B9A06C20B12068016821F008010160B7
:100F300094F85C103F208840A86084F8358084F8DD
:100F40003490216D1FE0E16B09B120468847606D48
:100F500000282BD0606DC00714D0052084F8350020
:100F60002068016821F0010101600098401C009098
:100F7000B84203D820680068C007F6D184F83580ED
:100F800084F83490E16C002910D001B02046BDE80F
:100F9000F04308470168C905D5D4016821F0100164
:100FA000016084F8358084F83490CCE7BDE8F8839C
:100FB000440000202DE9F041044600F00FFA0646F7
:100FC0005CB1022084F83500002584F83450206894
:100FD000016821F0010101600DE00120BDE8F08110
:100FE00000F0FCF9801B052805D92020606503204E
:100FF00084F83500F2E720680068C007F0D1226865
:10100000116820480140D4E901031843D4E90336AC
:101010003343184363691843A3691843E3691843CA
:10102000236A18430843616A042903D1D4E90B13E6
:1010300019430843106020684069666A20F0070180
:1010400030460E43012704280CD1A06A0643E06A0B
:1010500040B12046FFF7AEFB20B14020606584F828
:101060003570BAE7206846612046FFF78FFB94F899
:101070005C203F2191408160656584F835700020D7
:10108000ACE700003F8010F02DE9F0410446866D8A
:1010900090F83400002501280DD0012084F8340098
:1010A00094F835700020012F07D084F83400022511
:1010B0002846BDE8F0810220FBE7022784F835705E
:1010C00060652046FFF7A0FB94F85C103F20884045
:1010D000B0602068016841F016010160206C20B109
:1010E0002068016841F0080101602068016841F052
:1010F00001010160DCE7000070B5044600F06EF904
:101100000546601C02D004480078044400F066F9EB
:10111000401BA042FAD370BD3800002070B52028D3
:1011200046D1244CE06A002842D1234E202130468B
:1011300000F042F9214DC8B9A06801F0F1FE01228A
:101140008021284600F045F901222021284600F0A0
:1011500040F9322001F0E4FE00228021284600F010
:1011600038F900222021284600F033F920213046AA
:1011700000F022F901281BD1A06801F0D1FE012264
:101180004021284600F025F901221021284600F0D0
:1011900020F9322001F0C4FE00224021284600F050
:1011A00018F92846BDE870400022102100F011B95E
:1011B00070BD00000000002000000240000402405A
:1011C000044910B50A68024202D00860FFF7A6FF82
:1011D00010BD0000143C01402DE9F84FDFF8B8A124
:1011E0000022012403254FF00F090AF1040BAAF194
:1011F000040E00BF0B6804FA02F63340B34273D109
:101200000F7907F00307012F01D0022F16D187684D
:101210004FEA420805FA08FC27EA0C07D1F80CC08F
:101220000CFA08FC4CEA070CC0F808C04768B74342
:101230000E79C6F3001696403E4346600E79F6439B
:10124000B6070DD0C768560005FA06FC27EA0C075A
:10125000D1F808C00CFA06FC4CEA070CC0F80CC028
:101260000E7906F00306022E10D1D60800EB860890
:10127000D8F8206057074FEAD76C09FA0CF7BE433D
:101280000F6907FA0CF73743C8F8207006684FEA71
:10129000420C05FA0CF7BE430F7907F0030707FA73
:1012A0000CF7374307604E6816F4403F6DD03B4E55
:1012B000376847F480473760366822F0030706F442
:1012C00080460096364E07EB060CDCF80868970758
:1012D0003F0F09FA07F826EA0806DFF8C8804045FC
:1012E00003D14FF000081EE04FE0DFF8BC8040451E
:1012F00002D14FF0010816E0DFF8B080404502D17E
:101300004FF002080FE0DFF8A880404502D14FF00F
:10131000030808E0DFF89C80404502D14FF0040844
:1013200001E04FF0070808FA07F848EA0608CCF889
:101330000888DAF800605746D1F804C09E435FEA97
:10134000CC2C00D51E433E60DBF800605F46D1F830
:1013500004C09E435FEA8C2C00D51E433E60DEF83D
:1013600000607746D1F804C09E435FEA8C3C00D50C
:101370001E433E60084F083F3E68D1F804C09E43BC
:101380005FEACC3C00D51E433E60521C102AFFF49D
:1013900031AFBDE8F88F0000083C014044380240FE
:1013A00000300140000002400004024000080240FA
:1013B000000C0240001002400069084000D00120EB
:1013C0007047426921EA02030A4043EA024181610F
:1013D00070470AB1816170470904FBE701488068E2
:1013E00070470000380000200248816802781144EC
:1013F00081607047380000200B4810B5016841F447
:1014000000710160016841F480610160016841F48C
:1014100080710160032000F06FF80F2000F006F8E3
:1014200000F024F8002010BD003C024070B50D4DC6
:1014300004464FF47A712878B1FBF0F00A49096844
:10144000B1FBF0F000F00CFB48B9102C07D20022E1
:101450002146501E00F030F800206C6070BD012065
:1014600070BD000038000020440000200A4808B584
:10147000016841F480410160006800F48040009000
:101480000548001F016841F080510160006800F0CC
:101490008050009008BD000044380240002809DB5D
:1014A00000F01F02012191404009800000F1E0207E
:1014B000C0F8001170470000F0B40E4B1B680C46DA
:1014C000C3F30223C3F10705042D00D90425191D18
:1014D000072901D2002300E0DB1E012606FA05F1F0
:1014E000491E214099409E40761E16403143F0BC73
:1014F00001F0AABA0CED00E0064900F00702086806
:101500004FF6FF03184040EA0220034A10430860E8
:10151000704700000CED00E00000FA052DE9F047EF
:101520000E46050065D0DFF81481D8F80000F7B248
:1015300000F00700B04207D288F80070D8F8000029
:1015400000F00700B04254D128683D4C810712D505
:10155000400703D5206840F4E05020602878000759
:1015600003D5206840F4604020602068A96820F01E
:10157000F000084320602878C0072DD03049686803
:101580000839012812D0022813D0032811D0096885
:10159000890700292DDA216821F003010143216028
:1015A000FFF71CFF814641F2883A0EE00968890383
:1015B000EFE709688901ECE7FFF710FFA0EB0901ED
:1015C000514502D90320BDE8F0872068696800F022
:1015D0000C00B0EB810FEFD1D8F80010404601F0BD
:1015E0000701B14207D90770006800F00700B04258
:1015F00001D00120E7E72878400705D52068E96891
:1016000020F4E050084320602878000706D52068C1
:10161000296920F4604040EAC100206000F038F8F9
:101620002168084AC1F30311515CC84006490860AB
:1016300006480068FFF7FAFE0020C4E7003C0240BD
:10164000083802407A310008440000203C000020A5
:101650000448054900680968044AC1F38221515CC5
:10166000C840704744000020083802408A31000812
:101670000448054900680968044AC1F34231515CD5
:10168000C840704744000020083802408A310008F2
:10169000154810B5006810F00C02144813D0144916
:1016A000042A0FD0082A0ED10F4C241F2268236869
:1016B00002F03F025B0207D52068C0F38810A0FB50
:1016C000010106E0084610BD2168C1F38811A1FBA5
:1016D00000010023FEF77CFD2168C1F30141491C94
:1016E0004900B0FBF1F010BD083802400024F400BE
:1016F00040787D012DE9F84F04006ED02078DFF8A6
:101700004C93C007A9F104054AD009F1040001680F
:10171000C1F38101012908D00068C0F381000228CB
:101720000AD1D9F80000400206D52868800337D5D1
:1017300060680028E1D033E06068B0F5803F10D0E9
:10174000B0F5A02F286810D020F4803028602868D9
:1017500020F4802028606068A8B1FFF73FFE0646AD
:101760000DE0286840F48030F4E740F480202860E1
:10177000F7E700BFFFF732FE801B642873D82868A4
:101780008003F7D50CE0FFF729FE064605E000BF11
:10179000FFF724FE801B6428F0D828688003F7D464
:1017A0002078DFF8AC8280074FF0000A3ED5A748CA
:1017B000001D016811F00C0F08D00068C0F3810013
:1017C00002280BD1D9F80000400207D4286880070E
:1017D00016D5E068012800D112E033E1E068B8B125
:1017E0000120C8F80000FFF7F9FD064605E000BF3C
:1017F000FFF7F4FD801B0228C0D828688007F7D5C2
:101800002868216920F0F80040EAC10028600DE056
:10181000C8F800A0FFF7E2FD064604E0FFF7DEFD92
:10182000801B02281FD828688007F7D4207800077B
:1018300022D5864F87486169703771B101210160F7
:10184000FFF7CCFD064604E0FFF7C8FD801B022829
:1018500009D838688007F7D50EE0C0F800A0FFF778
:10186000BDFD064605E082E0FFF7B8FD801B0228BB
:101870007DD838688007F7D42078400768D5DFF82E
:10188000CCB100270BF13C0BDBF80000C0000BD4FF
:10189000DBF8001041F08051CBF80010DBF80000BD
:1018A000012700F0805000906B4E3068C00510D4C6
:1018B000306840F480703060FFF790FD009005E0E4
:1018C000FFF78CFD0099401A022850D83068C005F7
:1018D000F6D55E4EA0686C3601280FD0052830681A
:1018E00010D020F001003060306820F0040030603B
:1018F000A068B8B1FFF772FD00900FE0306840F0CB
:101900000100F4E740F004003060F7E7FFF766FD00
:101910000099411A41F28830814266D830688007C8
:10192000F4D50EE0FFF75AFD009007E0FFF756FDF3
:101930000099411A41F28830814256D830688007B8
:10194000F4D42FB1DBF8001021F08051CBF8001057
:10195000A069C8B33D49091D0968C1F38101022985
:101960004AD00228504607D0C8F8600000E03CE0AA
:10197000FFF734FD04463BE04746C8F86000FFF738
:101980002DFD064605E000BFFFF728FD801B02285D
:101990002BD828688001F7D4D4E907010843A16A4D
:1019A0002E4A490802EB0141626A41EA821108436A
:1019B00094F82C1040EA0161C9F800100120386643
:1019C000FFF70CFD044606E03EE000BFFFF706FD12
:1019D000001B022809D828688001F7D534E000BF31
:1019E000FFF7FCFC001B022802D90320BDE8F88F9A
:1019F00028688001F4D427E00128F7D0D9F8000046
:101A0000E26900F4800191421CD1226A00F03F019A
:101A1000914217D147F6C071626A0140B1EB821F53
:101A200010D1A26A4FF0FF3300F4403103EB5202B1
:101A3000B1EB024F06D194F82C1000F07060B0EBBF
:101A4000016F01D00120D1E70020CFE70438024028
:101A500000004742800E4742007000400000FFFF38
:101A600010B5401EB0F1807F01D3012010BD4FF0B2
:101A7000E02460610F21601700F0E6FF0020A06104
:101A800007202061002010BD70B590F83C20012A8D
:101A90002CD0012480F83C40022280F83D200368CD
:101AA0005A689D6822F070060A6832435A60104BEB
:101AB00002689A420ED0B2F1804F0BD00D4B9A4281
:101AC00008D00D4B9A4205D00C4B9A4202D00C4BD9
:101AD0009A4204D1496825F080031943916080F847
:101AE0003D40002180F83C10084670BD022070BDCA
:101AF000000001400004004000080040000C0040CD
:101B00000040014010B5040003D094F83D0010B12E
:101B100007E0012010BD002084F83C00204600F0C2
:101B20001FF8022084F83D00211D206800F0B8FC59
:101B3000012084F8460084F83E0084F83F0084F8D1
:101B4000400084F8410084F8420084F8430084F89F
:101B5000440084F8450084F83D00002010BD0000DA
:101B600008B50068B0F1804F08D10548016841F020
:101B700001010160006800F00100009008BD000054
:101B80004038024070B5044690F83C00002501281A
:101B900017D0012684F83C60022084F83D002068BC
:101BA000826822F0770222F47F428260086850281F
:101BB00038D00DDC20284FD005DC90B3102811D18F
:101BC0004AE0022070BD302846D040280AD13BE0D0
:101BD00060282FD070280DD0B0F5805F03D0B0F50D
:101BE000005F12D0012584F83D60002084F83C009D
:101BF000284670BDCB68D1E90121206800F09CFC2B
:101C00002068816841F0770109E0CB68D1E90121C2
:101C1000206800F091FC2068816841F48041816077
:101C2000E1E719E0CA684968206800F097FC502194
:101C3000206806E0CA684968206800F0A0FC6021BE
:101C4000206800F083FCCEE7CA684968206800F08D
:101C500085FC40212068F4E7226801461046F0E741
:101C60000B4B1878F22802D158785A280FD0094A1D
:101C70000021917090781954401CC0B290701828BF
:101C8000F8D30549002000BF401C8842FBDB7047A9
:101C90006400002000000020E0C8100010B50446D9
:101CA0000068406994F83D10C0F3C010212911D19B
:101CB00080B12068143050E8001F21F0800140E816
:101CC0000012002AF5D1606B08B1FFF747F82046F3
:101CD00000F009FD2068406994F83E10C0F38010C0
:101CE000222911D180B12068143050E8001F21F062
:101CF000400140E80012002AF5D1A06B08B1FFF7BF
:101D00002DF8204600F0C8FC002010BD70470000F0
:101D1000F8B5016804460868CA684B6910F00F0FEF
:101D20004FF0000559D003F0010602F490773743D5
:101D300065D0C10705D0D10503D5216C41F0010163
:101D40002164410705D5D90703D0216C41F0020178
:101D50002164810705D5D90703D0216C41F0040126
:101D60002164010707D502F02001314303D0216C23
:101D700041F008012164216C00293AD0800604D585
:101D8000900602D5204600F0BCFC20684069216C1A
:101D9000C0F38010090700D460B3204600F07CFC3B
:101DA00020684069400621D52068143050E8001FA3
:101DB00021F0400140E80012002AF5D1A06BA8B143
:101DC0006C490165A06BFFF712F8002811D0A06BD9
:101DD000016D01B0BDE8F040084783060FD59306BA
:101DE0000DD52046BDE8F84000F08BBC2046FFF73B
:101DF0008DFFF8BD2046FFF789FF2564F8BD266BEF
:101E00002023012E79D1C60677D5D60675D5086868
:101E1000486800904869400640D5A16B0868406852
:101E20000004000CEAD0A28D8242E7D9E085C8699F
:101E3000B0F5807F2DD020680C3050E8001F21F4D1
:101E4000807140E80012002AF5D12068143050E873
:101E5000001F21F0010140E80012002AF5D120689E
:101E6000143050E8001F21F0400140E80012002A21
:101E7000F5D184F83E30256320680C3050E8001F0F
:101E800021F0100140E80012002AF5D1A06BFEF706
:101E900065FFA08DE18D401A81B229E0A08DE18D12
:101EA000401A81B2E08D0028A8D00029A6D0206871
:101EB0000C3050E8002F22F4907240E80026002EEB
:101EC000F5D12068143050E8002F22F0010240E8DC
:101ED0000026002EF5D184F83E30256320680C30B2
:101EE00050E8002F22F0100240E80023002BF5D12B
:101EF0002046FFF7B5FEF8BDFFE705062BD5150612
:101F000029D594F83D002128F5D1A068B0F5805F6F
:101F100001D12069B0B1206A411C2162216800789A
:101F20004860E08C401E0004000CE084E3D120688F
:101F3000C16821F08001C1602068C16841F04001A2
:101F4000C160D8E7206A0088C0F308004860206AB2
:101F5000801C2062E5E74006CDD55006CBD5CA6887
:101F6000204622F04002CA6084F83D3000F025F996
:101F7000C1E70000A325000870B5040004D094F860
:101F80003D00002510B106E0012070BD84F83C50F2
:101F9000204600F023F8242084F83D002068C16822
:101FA00021F40051C160204600F00CFC206801695A
:101FB00021F4904101612068416921F02A014161C9
:101FC0002068C16841F40051C1602564202084F874
:101FD0003D0084F83E00002070BD0000F0B587B0E1
:101FE000064614216846FEF72BF9DFF8D4C03068A6
:101FF00000253449022203230727334C60451CD1B6
:1020000030481430066846F010060660006800F09C
:1020100010000590086840F00100086008686946F3
:1020200000F00100059058028DE82500CDE9033746
:102030002046FFF7D1F807B0F0BDDFF890C060454B
:10204000F9D120481030D0F800C04CF4003CC0F862
:1020500000C0006800F400300590086840F00100FE
:1020600008600868694600F0010005900C208DE8C2
:102070002500CDE903372046FFF7AEF8154C14488C
:1020800020604FF00060C4E901054014C4E903502A
:102090006561C001A561C4E9075020466562FEF78D
:1020A00089FF08B1FEF78AFCB4630022114626209E
:1020B000A663FFF701FA2620FFF7F0F9BBE700005F
:1020C000001001403038024000000240004400404F
:1020D000886002409C01002090F83E30202B0ED1F9
:1020E00059B152B190F83C30012B08D0012380F84F
:1020F0003C300023036300F0EBBB0120704702205B
:1021000070477047704700002DE9F843044690F887
:102110003D001F4616460D4620284CD1C5B1BEB124
:1021200094F83C00012846D0012084F83C004FF090
:102130000008C4F84080212084F83D00FFF74EF9E4
:10214000A6848146E684A068B0F5805F03D004E0F1
:102150000120BDE8F883206928B12E465FF0000514
:1021600084F83C800EE00026FAE78021204600F04B
:10217000F9FBA0B9AEB116F8010B21684860E08CFC
:10218000401EE084E08C4B464FF000020097002890
:10219000EBD14FF04001204600F0E4FB30B10320CA
:1021A000D7E735F8020BC0F30800E6E7202084F8F3
:1021B0003D000020CDE70220CBE77047FEE700009E
:1021C0007FB50024154800940194029412490394A9
:1021D00001604FF48031C0E90114012504610576E6
:1021E00080F820400E49C0E90A14C561C46080F837
:1021F00030404561FEF79BFC08B1FEF7DFFBCDE9FF
:102200000045694605480294FEF7DAFB002801D034
:10221000FEF7D4FB7FBD00000020014084000020B9
:102220000100000F094808B5016841F40011016080
:102230000068002200F40010009011461020FFF703
:102240003BF9BDE808401020FFF728B930380240BC
:10225000F0B587B014216846FDF7F2FF2A48002444
:10226000016841F004010160016801F00401059179
:10227000016841F080010160016801F08001059171
:10228000016841F001010160016801F0010105915F
:10229000016841F00201016000681C4E00F002007C
:1022A0004FF400550590002229463046FFF791F87B
:1022B000174F0022F0213846FFF78BF800950125D3
:1022C000CDE90154694630460394FEF785FF20208E
:1022D00000904FF44410CDE9010469460D48FEF723
:1022E0007BFFF0200090CDE9015469463846039405
:1022F000FEF772FF002211461720FFF7DDF81720C6
:10230000FFF7CCF807B0F0BD3038024000080240BB
:10231000000402400000024010B586B000241648B8
:10232000009401940294039404944FF08041059426
:1023300001606321C0E90114611EC0E903148461D6
:10234000FFF7E0FB08B1FEF739FB4FF48050009037
:1023500069460948FFF716FC08B1FEF72FFB049405
:1023600004A905480594FFF78FFB002801D0FEF76C
:1023700025FB06B010BD0000CC0000200C4810B5B5
:102380000A4901604FF416514160002181600C221E
:10239000C160C0E904128161C161FFF7EDFD002851
:1023A00003D0BDE81040FEF709BB10BD001001408E
:1023B000140100200E4810B50C4901604FF49651ED
:1023C00041604FF48051816000214FF48062C0E988
:1023D00003120C22C0E90521C161FFF7CDFD0028E1
:1023E00003D0BDE81040FEF7E9BA10BD004400403C
:1023F00058010020FEE7FEE770477047FEF7F4BF84
:1024000030B593B030216846FDF71AFF14210CA8AF
:10241000FDF716FF1C480024016841F0805101605F
:10242000006800F0805011901848016841F4404164
:1024300001600068022500F44040119001200390E3
:1024400010200490009506950820CDE907406420EF
:10245000CDE9090504200B906846FFF74BF908B158
:1024600072B6FEE70F20CDE90C054FF48050CDE9A0
:102470000E4003210CA81094FFF750F8002801D05B
:1024800072B6FEE713B030BD403802400070004025
:102490000248016841F470010160704788ED00E076
:1024A000F0B502681D4B1E4C9F031E4D1E4E9842F8
:1024B00007D0B84205D0A04203D0A84201D0B04214
:1024C00004D122F0700C4A6842EA0C02984210D003
:1024D000B8420ED0A0420CD0A8420AD0B04208D0D8
:1024E000124CA04205D0124CA04202D0114CA04286
:1024F00003D122F44074CA6822434C6922F080025E
:10250000224302608A68C2620A688262984201D1EC
:102510000969016301214161F0BD00000000014033
:102520000004004000080040000C00400040014052
:10253000004401400048014010B5846842EA03228B
:1025400024F47F440A432243826010BD826822F053
:1025500070020A4342F007018160704710B5036AB8
:10256000046A24F001040462846924F0F00444EA5B
:10257000021423F00A020A438461026210BD10B5FE
:10258000036A23F0100303628369046A23F470432F
:1025900043EA023224F0A00343EA0111826101629E
:1025A00010BD10B5806B0021C185C184FFF7AEFB63
:1025B00010BD70B5846B2068406994F83D10C0F37D
:1025C000C0100025212904D118B1E584204600F06F
:1025D0008AF82068406994F83E10C0F380102229E0
:1025E00004D118B1E585204600F056F8206C40F083
:1025F000100020642046FFF789FB70BD10B501462E
:10260000806B09680968C9052FD40021C18501685C
:102610000C3151E8002F22F4807241E80023002B96
:10262000F5D10168143151E8002F22F0010241E890
:102630000023002BF5D10168143151E8002F22F05E
:10264000400241E80023002BF5D1202180F83E1004
:10265000016B012909D101680C3151E8002F22F0EA
:10266000100241E80023002BF5D1016B012902D0B3
:10267000FFF747FD10BD818DFFF7F2FA10BD10B5D1
:10268000806B016B012902D0FFF73CFD10BD818DED
:102690004908FFF7E5FA10BD01680C3151E8002F39
:1026A00022F4907241E80023002BF5D10168143127
:1026B00051E8002F22F0010241E80023002BF5D160
:1026C000016B012909D101680C3151E8002F22F07A
:1026D000100241E80023002BF5D1202180F83E10A4
:1026E00000210163704701680C3151E8002F22F08E
:1026F000C00241E80023002BF5D1202180F83D10D5
:10270000704708B590F83E10222901D0022008BD7C
:1027100082684FF480539A4201D1016921B1816AE4
:102720009A421BD04AB10AE00268816A5268C2F339
:1027300008020A80816A891C08E0026972B1026895
:10274000526802F07F020A70816A491C8162C18D61
:10275000491E0904090CC18503D019E002685268BA
:10276000F1E70168CA6822F02002CA600168CA68FD
:1027700022F48072CA6001684A6922F001024A614B
:10278000202180F83E10016B012903D0FFF7B9FC2E
:10279000002008BD0021016301680C3151E8002FC1
:1027A00022F0100241E80023002BF5D101680A68ED
:1027B000D20602D50A6849680091818DFFF750FA68
:1027C000E6E7000070B5044600680169E26821F49C
:1027D0004051114301612169A068E26908436169C0
:1027E000114308432168CA6849F20C639A430243C3
:1027F000CA6020684169A26921F4407111434161B6
:1028000031492068884202D03049884202D1FEF71F
:102810002FFF01E0FEF71CFFE26900231921642568
:102820003226B2F5004F626828D0A0FB0101930F59
:102830009200FDF7CDFC0146B0FBF5F06FF01802F9
:10284000504301EB800006EB0010B0FBF5F000F008
:10285000F002B1FBF5F002EB0012B1FBF5F06FF006
:102860001803584301EB800006EB0010B0FBF5F0B5
:1028700000F00F0021681044886070BDA0FB0101CA
:1028800092185B41FDF7A4FC0146B0FBF5F0020194
:10289000B1FBF5F06FF01803584301EB800006EB35
:1028A000C000B0FBF5F000F0F80002EB4002B1FB15
:1028B000F5F0584301EB800006EBC000B0FBF5F0EB
:1028C00000F00700D6E700000010014000140140AE
:1028D00038B58162828500251346044605642220AE
:1028E00084F83E00A26B1C48D063A26B1B481064A6
:1028F000A26B1B48D064A06B0A4605652168A06BDB
:10290000091DFEF7C1FB206801684068009084F84B
:102910003C50206948B120680C3050E8001F41F459
:10292000807140E80012002AF5D12068143050E888
:10293000001F41F0010140E80012002AF5D1206893
:10294000143050E8001F41F0400140E80012002A16
:10295000F5D1002038BD0000FD2500087F260008C5
:10296000B32500082DE9F041984617460E46044667
:10297000069D27E0681C25D02DB1FEF72FFDA0EBAA
:102980000800A8421ED920680C3050E8001F21F42E
:10299000D07140E80012002AF5D12068143050E8C8
:1029A000001F21F0010140E80012002AF5D120208B
:1029B00084F83D0084F83E00002084F83C000320A9
:1029C000BDE8F0812068006836EA000004D00020ED
:1029D000B842CFD00020F3E70120F9E738B50E4C1C
:1029E00020680168C943C9060BD40168406800909B
:1029F0002046FFF753F920680168406807480068DF
:102A000040680548FFF784F9BDE8384018220449BA
:102A10000148FFF761BB0000580100209C01002025
:102A200064000020FEE700000FB4054B10B503A9B9
:102A3000044A029800F0C6F810BC5DF814FB0000D0
:102A40005D2F0008480000200907090E002804DB5C
:102A500000F1E02080F80014704700F00F0000F152
:102A6000E02080F8141D704710B510EE104A4FF0AA
:102A70001A402DED028B00EB4400B0F1C85F4AD83C
:102A80004FF0FC40B0EB440F22D2B0EEC00AF7EE9C
:102A9000000A30EEC00AF6EE000A20EE208A18EE98
:102AA000100A00F047FB00EE100A14F0004F1DBFA3
:102AB0009FED281ADFED280AB1EE400A9FED271A94
:102AC00008BFF0EE410AF8EE001A20EE210A05E0F8
:102AD00020EE008A9FED221ADFED220ADFED221A96
:102AE0009FED222A70EEC00A20EE080A08EE212A85
:102AF000DFED1F1A48EE021A9FED1E2A08EE212A6A
:102B0000DFED1D1A48EE021ABDEC028B40EE610AA1
:102B100030EE810A10BD4FF0CC40B0EB440F82BFC5
:102B20009FED160ABDEC028B10BD4FF07F40B0EB5D
:102B3000440F05D2BDEC028BBDE8104000F020B878
:102B4000012000F039F8BDEC028BBDE8104000F028
:102B50001BB800000000494022AA7D3A0000000096
:102B60000000C93F22AAFD3924FE1C3DC78AD83C7B
:102B70001E67383D1B93993DAFAA2A3EDB0FC93F24
:102B800030EE000A70470000DFED020A80EEA00A76
:102B9000704700000000000002E008C8121F08C1D2
:102BA000002AFAD170477047002001E001C1121FCE
:102BB000002AFBD1704700000149086070470000FF
:102BC0004C0000202DE9FF4F8BB0884605460026BB
:102BD00006E025280BD0DDE90D1290476D1C761C10
:102BE00028780028F5D10FB03046BDE8F08F0024DA
:102BF000A146A2460122AE4900E0044315F8013F78
:102C0000203B02FA03F00842F7D128782A2810D096
:102C10006FF02F022878A0F13001092915D809EBAF
:102C2000890102EB410144F0020400EB01096D1C33
:102C3000F0E758F8041B5FEA010903D544F4005497
:102C4000C9F1000944F002046D1C28782E2817D120
:102C500015F8010F44F004042A280ED06FF02F025B
:102C60002878A0F1300109290AD80AEB8A0102EB81
:102C7000410100EB010A6D1CF2E758F804AB6D1C32
:102C800028786C280FD006DC4C2817D068280DD087
:102C90006A2814D104E0742810D07A280FD10DE0EE
:102CA00044F400140AE044F4801401E044F44014B5
:102CB0006978814202D104F580146D1C6D1C28785E
:102CC000692865D006DC00288DD0632827D06428C9
:102CD00006D15DE06E2808D073282AD0752877D0F9
:102CE000DDE90D129047761CE0E0C4F302500228A3
:102CF00009D003280DD0D8F8001004280DD00E609C
:102D000008F10408D2E0D8F80010F217C1E9006217
:102D1000F6E7D8F800100E80F2E70E70F0E718F82A
:102D2000041B8DF8001000208DF80100EB460120F7
:102D300003E058F804BB4FF0FF3061074FF0000785
:102D400001D40AE07F1C57450DDA8742FADB1BF8F5
:102D500007100029F6D106E07F1C8742FCDB1BF838
:102D600007100029F8D1DDE90D23A9EB0700814602
:102D7000214600F0B1F83044C61904E0DDE90D1237
:102D80001BF8010B90477F1EF8D22146484688E089
:102D900058F8040BC4F302514FF00A0B032900D179
:102DA00000B2042900D140B2002802DA40422D21AD
:102DB00002E0210505D52B218DF82410012104E026
:102DC00006E0E10710D02021F6E708AF089113E0F4
:102DD00058F8040BC4F302514FF00A0B032900D139
:102DE00080B2042900D1C0B20021EEE75946FDF7B8
:102DF00055FB303107F8011D0028F7D1ADEB070076
:102E000000F1200B600702D524F4803401E04FF07C
:102E1000010ADA4502DDAAEB0B0000E00020824641
:102E200000EB0B0108980144A9EB01000A90E003B4
:102E300006D4DDE90D2321460A9800F04DF806443A
:102E40004FF0000908E009A911F80900DDE90D12A9
:102E5000904709F10109761C08998945F3DBE003E5
:102E60000CD5DDE90D2321460A9800F035F806441B
:102E700004E0DDE90D1230209047761CBAF1000124
:102E8000AAF1010AF5DC05E0DDE90D1217F8010BE6
:102E90009047761CBBF10001ABF1010BF4DC0A9802
:102EA0002146DDE90D2300F005F806446D1C97E688
:102EB000092801002DE9F041044600251E46174669
:102EC000880404D405E039462020B0476D1C641EF8
:102ED000F9D52846BDE8F0812DE9F04104460025EA
:102EE0001E469046C80301D5302700E020278804FD
:102EF00004D505E041463846B0476D1C641EF9D53F
:102F00002846BDE8F08130EE600A32EE612A31EEEB
:102F1000601A20EE020AC0EE010A30EEA10A7047E4
:102F20000D4900220B685A620A68136843F00103D6
:102F3000136009684A6A8242FCD3086A41F211129E
:102F4000104207D1086A9210104203D1086820F09D
:102F50000100086070470000CC00002013B54FF658
:102F6000FF73012269460248FFF7CEF800981CBDA6
:102F7000140100202DED068B82B0FEF73DFAFFF71D
:102F80003FFAFFF765F9FFF74DF9FFF713FAFFF77F
:102F9000C3F9FFF7F3F9FFF713F953480168CA685B
:102FA00042F02002CA600168CA6842F01002CA609A
:102FB00000684FF0000801684068009018224B49F3
:102FC0004948FFF789F84A4D4FF400540022214642
:102FD0002846FEF7FEF9A246A946DFED469A464D81
:102FE000DFED468A9FED469A464E474F474C9FED90
:102FF000488A9FED48AADFED48AA4848FDF748FEF9
:1030000032214648FDF7EEFD4448FDF78BFD800573
:1030100008D54248FDF788FD00EE100AB8EE400AD8
:1030200084ED090AFDF704FC6420FEF765F85146BB
:103030004846FEF7C6F9F0EE480AB3EE022AF0EE73
:10304000601AB0EE691A94ED090AFFF75CFF10EE02
:10305000100A84ED0A0AA84202DA0120E06202E0C6
:103060000220C4F82C80C0EE280AE06094ED041A17
:1030700080EE810A84ED0C0AFFF7F6FCB0EE4A1AE6
:10308000F0EE410A40EE490A10EE900AC4ED080A3B
:10309000B04203DA9FED220A84ED080A206AB842A2
:1030A00003DD9FED200A84ED080AF0EE6A2AF0EEB7
:1030B000480AB0EE622AF0EE601A94ED080AFFF7B3
:1030C00022FFBCEEC00A18A084ED020A94ED070AA4
:1030D00020EE220ABCEEC00A10EE102A6263E168FC
:1030E000FFF7A2FC89E700005801002064000020DF
:1030F0000008024000008045000020416666663FEF
:10310000E02E65420000B44200002543000000208C
:10311000000000000000344300401C4684000020F2
:103120000000B44200002543256420253039640D99
:103130000A00000010B500EE100A2DED028BB1EE72
:10314000C08A18EE100A20F00040C0F1FF40C00F06
:103150000AD010EE100A20F00040C0F1FF40C00F6E
:1031600004BF0120FFF728FD18EE100ABDEC028B0A
:1031700010BD00061016000610160000000000002A
:103180000000010203040607080900000000010214
:1031900003040000B43100080000002050000000CB
:1031A000982B00080432000850000020B0050000F1
:1031B000A82B000800000000000000000000000034
:1031C00001000000000000000000000000000000FE
:1031D00000000000000000000000000000000000EF
:1031E00000000000000000000000000001000000DE
:1031F00010000000000000000024F40000000000A7
:0432000000000000CA
:040000050800019955
:00000001FF
